{
  "contractName": "Rent",
  "abi": [
    {
      "inputs": [],
      "stateMutability": "payable",
      "type": "constructor",
      "payable": true
    },
    {
      "anonymous": false,
      "inputs": [
        {
          "indexed": false,
          "internalType": "uint256",
          "name": "_id",
          "type": "uint256"
        }
      ],
      "name": "ChangeKey",
      "type": "event"
    },
    {
      "anonymous": false,
      "inputs": [
        {
          "indexed": false,
          "internalType": "address payable",
          "name": "_owner",
          "type": "address"
        },
        {
          "indexed": false,
          "internalType": "uint256",
          "name": "_id",
          "type": "uint256"
        }
      ],
      "name": "CloseRoomOwnerForever",
      "type": "event"
    },
    {
      "anonymous": false,
      "inputs": [
        {
          "indexed": false,
          "internalType": "address payable",
          "name": "_owner",
          "type": "address"
        },
        {
          "indexed": false,
          "internalType": "uint256",
          "name": "_id",
          "type": "uint256"
        }
      ],
      "name": "CloseRoomOwnerFromThisRenter",
      "type": "event"
    },
    {
      "anonymous": false,
      "inputs": [
        {
          "indexed": false,
          "internalType": "uint256",
          "name": "_id",
          "type": "uint256"
        }
      ],
      "name": "CloseRoomRenter",
      "type": "event"
    },
    {
      "anonymous": false,
      "inputs": [
        {
          "indexed": false,
          "internalType": "address payable",
          "name": "_owner",
          "type": "address"
        },
        {
          "indexed": false,
          "internalType": "address payable",
          "name": "_rentOwner",
          "type": "address"
        },
        {
          "indexed": false,
          "internalType": "uint256",
          "name": "_id",
          "type": "uint256"
        },
        {
          "indexed": false,
          "internalType": "uint256",
          "name": "_timeDeal",
          "type": "uint256"
        },
        {
          "indexed": false,
          "internalType": "uint256",
          "name": "_timeRentEnded",
          "type": "uint256"
        },
        {
          "indexed": false,
          "internalType": "uint256",
          "name": "_price",
          "type": "uint256"
        }
      ],
      "name": "RentRoom",
      "type": "event"
    },
    {
      "anonymous": false,
      "inputs": [
        {
          "indexed": false,
          "internalType": "address payable",
          "name": "_owner",
          "type": "address"
        },
        {
          "indexed": false,
          "internalType": "uint256",
          "name": "_price",
          "type": "uint256"
        }
      ],
      "name": "SellRoom",
      "type": "event"
    },
    {
      "stateMutability": "payable",
      "type": "fallback",
      "payable": true
    },
    {
      "stateMutability": "payable",
      "type": "receive",
      "payable": true
    },
    {
      "inputs": [],
      "name": "getBalance",
      "outputs": [
        {
          "internalType": "uint256",
          "name": "",
          "type": "uint256"
        }
      ],
      "stateMutability": "view",
      "type": "function",
      "constant": true
    },
    {
      "inputs": [
        {
          "internalType": "string",
          "name": "_name",
          "type": "string"
        },
        {
          "internalType": "string",
          "name": "_description",
          "type": "string"
        },
        {
          "internalType": "uint256",
          "name": "_key",
          "type": "uint256"
        },
        {
          "internalType": "uint256",
          "name": "_price",
          "type": "uint256"
        }
      ],
      "name": "sellRoom",
      "outputs": [],
      "stateMutability": "payable",
      "type": "function",
      "payable": true
    },
    {
      "inputs": [],
      "name": "getAllRooms",
      "outputs": [
        {
          "components": [
            {
              "internalType": "uint256",
              "name": "ID",
              "type": "uint256"
            },
            {
              "internalType": "address payable",
              "name": "Owner",
              "type": "address"
            },
            {
              "internalType": "address payable",
              "name": "RentOwner",
              "type": "address"
            },
            {
              "internalType": "uint256",
              "name": "TimeDeal",
              "type": "uint256"
            },
            {
              "internalType": "uint256",
              "name": "TimeRentEnded",
              "type": "uint256"
            },
            {
              "internalType": "string",
              "name": "Name",
              "type": "string"
            },
            {
              "internalType": "string",
              "name": "Description",
              "type": "string"
            },
            {
              "internalType": "uint256",
              "name": "Price",
              "type": "uint256"
            },
            {
              "internalType": "bool",
              "name": "Rented",
              "type": "bool"
            }
          ],
          "internalType": "struct Rent.Room[]",
          "name": "_rooms",
          "type": "tuple[]"
        }
      ],
      "stateMutability": "view",
      "type": "function",
      "constant": true
    },
    {
      "inputs": [
        {
          "internalType": "uint256",
          "name": "_id",
          "type": "uint256"
        }
      ],
      "name": "rentRoom",
      "outputs": [],
      "stateMutability": "payable",
      "type": "function",
      "payable": true
    },
    {
      "inputs": [
        {
          "internalType": "uint256",
          "name": "_id",
          "type": "uint256"
        }
      ],
      "name": "closeRoomRenter",
      "outputs": [],
      "stateMutability": "payable",
      "type": "function",
      "payable": true
    },
    {
      "inputs": [
        {
          "internalType": "uint256",
          "name": "_id",
          "type": "uint256"
        }
      ],
      "name": "closeRoomOwnerForever",
      "outputs": [],
      "stateMutability": "payable",
      "type": "function",
      "payable": true
    },
    {
      "inputs": [
        {
          "internalType": "uint256",
          "name": "_id",
          "type": "uint256"
        }
      ],
      "name": "closeRoomOwnerFromThisRenter",
      "outputs": [],
      "stateMutability": "payable",
      "type": "function",
      "payable": true
    },
    {
      "inputs": [
        {
          "internalType": "uint256",
          "name": "_id",
          "type": "uint256"
        },
        {
          "internalType": "uint256",
          "name": "_newKey",
          "type": "uint256"
        }
      ],
      "name": "changeKey",
      "outputs": [],
      "stateMutability": "nonpayable",
      "type": "function"
    },
    {
      "inputs": [
        {
          "internalType": "uint256",
          "name": "_id",
          "type": "uint256"
        }
      ],
      "name": "getKey",
      "outputs": [
        {
          "internalType": "uint256",
          "name": "",
          "type": "uint256"
        }
      ],
      "stateMutability": "view",
      "type": "function",
      "constant": true
    }
  ],
  "bytecode": "0x6080604052612ac2806100136000396000f3fe60806040526004361061008a5760003560e01c8063a9de4bc711610059578063a9de4bc71461011f578063bb5b27e11461013b578063cf53be7514610178578063f5494b5114610194578063f794cf2d146101b057610091565b806312065fe01461009357806376479255146100be57806384a3fd6f146100da5780639ddde81c146100f657610091565b3661009157005b005b34801561009f57600080fd5b506100a86101db565b6040516100b591906124a2565b60405180910390f35b6100d860048036038101906100d39190611f98565b6101e3565b005b6100f460048036038101906100ef9190611f98565b6104c2565b005b34801561010257600080fd5b5061011d60048036038101906101189190611fc5565b610db1565b005b61013960048036038101906101349190611ef9565b610eb6565b005b34801561014757600080fd5b50610162600480360381019061015d9190611f98565b611117565b60405161016f91906124a2565b60405180910390f35b610192600480360381019061018d9190611f98565b611261565b005b6101ae60048036038101906101a99190611f98565b61155a565b005b3480156101bc57600080fd5b506101c5611a91565b6040516101d29190612380565b60405180910390f35b600047905090565b600281815481106101f7576101f66128aa565b5b906000526020600020906009020160010160009054906101000a900473ffffffffffffffffffffffffffffffffffffffff1673ffffffffffffffffffffffffffffffffffffffff163373ffffffffffffffffffffffffffffffffffffffff1614610296576040517f08c379a000000000000000000000000000000000000000000000000000000000815260040161028d90612402565b60405180910390fd5b600034141580156102cd57506000600282815481106102b8576102b76128aa565b5b90600052602060002090600902016003015414155b1561037457600281815481106102e6576102e56128aa565b5b906000526020600020906009020160020160009054906101000a900473ffffffffffffffffffffffffffffffffffffffff1673ffffffffffffffffffffffffffffffffffffffff166108fc6001600084815260200190815260200160002054346103509190612579565b9081150290604051600060405180830381858888f1935050505061037357600080fd5b5b600060016000838152602001908152602001600020819055506000600282815481106103a3576103a26128aa565b5b906000526020600020906009020160020160006101000a81548173ffffffffffffffffffffffffffffffffffffffff021916908373ffffffffffffffffffffffffffffffffffffffff160217905550600060028281548110610408576104076128aa565b5b906000526020600020906009020160030181905550600060028281548110610433576104326128aa565b5b90600052602060002090600902016004018190555060006002828154811061045e5761045d6128aa565b5b906000526020600020906009020160080160006101000a81548160ff0219169083151502179055507f907825b73e7dab4fb174ffd002a1becd876d6d79690d88fdc5d5eca715f32d4a33826040516104b7929190612357565b60405180910390a150565b600281815481106104d6576104d56128aa565b5b906000526020600020906009020160010160009054906101000a900473ffffffffffffffffffffffffffffffffffffffff1673ffffffffffffffffffffffffffffffffffffffff163373ffffffffffffffffffffffffffffffffffffffff1614610575576040517f08c379a000000000000000000000000000000000000000000000000000000000815260040161056c90612402565b60405180910390fd5b600034141580156105ac5750600060028281548110610597576105966128aa565b5b90600052602060002090600902016003015414155b1561068957600281815481106105c5576105c46128aa565b5b906000526020600020906009020160020160009054906101000a900473ffffffffffffffffffffffffffffffffffffffff1673ffffffffffffffffffffffffffffffffffffffff166108fc60016000848152602001908152602001600020543461062f9190612579565b9081150290604051600060405180830381858888f19350505050610688576040517f08c379a000000000000000000000000000000000000000000000000000000000815260040161067f90612462565b60405180910390fd5b5b6000600160008381526020019081526020016000208190555060028054905081106106b357610dae565b60008190505b60016002805490506106cb919061265a565b811015610ca6576000600282815481106106e8576106e76128aa565b5b906000526020600020906009020160405180610120016040529081600082015481526020016001820160009054906101000a900473ffffffffffffffffffffffffffffffffffffffff1673ffffffffffffffffffffffffffffffffffffffff1673ffffffffffffffffffffffffffffffffffffffff1681526020016002820160009054906101000a900473ffffffffffffffffffffffffffffffffffffffff1673ffffffffffffffffffffffffffffffffffffffff1673ffffffffffffffffffffffffffffffffffffffff16815260200160038201548152602001600482015481526020016005820180546107dc90612742565b80601f016020809104026020016040519081016040528092919081815260200182805461080890612742565b80156108555780601f1061082a57610100808354040283529160200191610855565b820191906000526020600020905b81548152906001019060200180831161083857829003601f168201915b5050505050815260200160068201805461086e90612742565b80601f016020809104026020016040519081016040528092919081815260200182805461089a90612742565b80156108e75780601f106108bc576101008083540402835291602001916108e7565b820191906000526020600020905b8154815290600101906020018083116108ca57829003601f168201915b50505050508152602001600782015481526020016008820160009054906101000a900460ff161515151581525050905060026001836109269190612579565b81548110610937576109366128aa565b5b906000526020600020906009020160028381548110610959576109586128aa565b5b9060005260206000209060090201600082015481600001556001820160009054906101000a900473ffffffffffffffffffffffffffffffffffffffff168160010160006101000a81548173ffffffffffffffffffffffffffffffffffffffff021916908373ffffffffffffffffffffffffffffffffffffffff1602179055506002820160009054906101000a900473ffffffffffffffffffffffffffffffffffffffff168160020160006101000a81548173ffffffffffffffffffffffffffffffffffffffff021916908373ffffffffffffffffffffffffffffffffffffffff16021790555060038201548160030155600482015481600401556005820181600501908054610a6790612742565b610a72929190611d04565b506006820181600601908054610a8790612742565b610a92929190611d04565b50600782015481600701556008820160009054906101000a900460ff168160080160006101000a81548160ff02191690831515021790555090505060028281548110610ae157610ae06128aa565b5b90600052602060002090600902016000016000815480929190610b0390612718565b9190505550806002600184610b189190612579565b81548110610b2957610b286128aa565b5b90600052602060002090600902016000820151816000015560208201518160010160006101000a81548173ffffffffffffffffffffffffffffffffffffffff021916908373ffffffffffffffffffffffffffffffffffffffff16021790555060408201518160020160006101000a81548173ffffffffffffffffffffffffffffffffffffffff021916908373ffffffffffffffffffffffffffffffffffffffff160217905550606082015181600301556080820151816004015560a0820151816005019080519060200190610bff929190611d91565b5060c0820151816006019080519060200190610c1c929190611d91565b5060e082015181600701556101008201518160080160006101000a81548160ff0219169083151502179055509050506002600183610c5a9190612579565b81548110610c6b57610c6a6128aa565b5b90600052602060002090600902016000016000815480929190610c8d906127a5565b9190505550508080610c9e906127a5565b9150506106b9565b506002805480610cb957610cb861287b565b5b60019003818190600052602060002090600902016000808201600090556001820160006101000a81549073ffffffffffffffffffffffffffffffffffffffff02191690556002820160006101000a81549073ffffffffffffffffffffffffffffffffffffffff021916905560038201600090556004820160009055600582016000610d449190611e17565b600682016000610d549190611e17565b60078201600090556008820160006101000a81549060ff0219169055505090557f582db14e0ca83e5a4fff9f1c06c21038e3d9fed9de9bc355668e1ac999f4427b3382604051610da5929190612357565b60405180910390a15b50565b60028281548110610dc557610dc46128aa565b5b906000526020600020906009020160010160009054906101000a900473ffffffffffffffffffffffffffffffffffffffff1673ffffffffffffffffffffffffffffffffffffffff163373ffffffffffffffffffffffffffffffffffffffff1614610e64576040517f08c379a0000000000000000000000000000000000000000000000000000000008152600401610e5b90612402565b60405180910390fd5b80600080848152602001908152602001600020819055507faba8af5d5b4392842577d3ed2da50560ff0c1c7faf476af69e05b783360d4e7a82604051610eaa91906124a2565b60405180910390a15050565b60008114158015610ec8575060008214155b610f07576040517f08c379a0000000000000000000000000000000000000000000000000000000008152600401610efe90612482565b60405180910390fd5b81600080600280549050815260200190815260200160002081905550600260405180610120016040528060028054905081526020013373ffffffffffffffffffffffffffffffffffffffff168152602001600073ffffffffffffffffffffffffffffffffffffffff16815260200160008152602001600081526020018681526020018581526020018381526020016000151581525090806001815401808255809150506001900390600052602060002090600902016000909190919091506000820151816000015560208201518160010160006101000a81548173ffffffffffffffffffffffffffffffffffffffff021916908373ffffffffffffffffffffffffffffffffffffffff16021790555060408201518160020160006101000a81548173ffffffffffffffffffffffffffffffffffffffff021916908373ffffffffffffffffffffffffffffffffffffffff160217905550606082015181600301556080820151816004015560a082015181600501908051906020019061108d929190611d91565b5060c08201518160060190805190602001906110aa929190611d91565b5060e082015181600701556101008201518160080160006101000a81548160ff02191690831515021790555050507fdbd9f31c8b270d29f0c9026d6a8a21187b75675b96fa4a674de1e9907b2565ff3382604051611109929190612357565b60405180910390a150505050565b60006002828154811061112d5761112c6128aa565b5b906000526020600020906009020160010160009054906101000a900473ffffffffffffffffffffffffffffffffffffffff1673ffffffffffffffffffffffffffffffffffffffff163373ffffffffffffffffffffffffffffffffffffffff1614806112085750600282815481106111a7576111a66128aa565b5b906000526020600020906009020160020160009054906101000a900473ffffffffffffffffffffffffffffffffffffffff1673ffffffffffffffffffffffffffffffffffffffff163373ffffffffffffffffffffffffffffffffffffffff16145b611247576040517f08c379a000000000000000000000000000000000000000000000000000000000815260040161123e906123c2565b60405180910390fd5b600080838152602001908152602001600020549050919050565b60028181548110611275576112746128aa565b5b906000526020600020906009020160020160009054906101000a900473ffffffffffffffffffffffffffffffffffffffff1673ffffffffffffffffffffffffffffffffffffffff163373ffffffffffffffffffffffffffffffffffffffff1614611314576040517f08c379a000000000000000000000000000000000000000000000000000000000815260040161130b90612442565b60405180910390fd5b60006002828154811061132a576113296128aa565b5b9060005260206000209060090201600301541461140e5760028181548110611355576113546128aa565b5b906000526020600020906009020160020160009054906101000a900473ffffffffffffffffffffffffffffffffffffffff1673ffffffffffffffffffffffffffffffffffffffff166108fc60016000848152602001908152602001600020549081150290604051600060405180830381858888f1935050505061140d576040517f08c379a000000000000000000000000000000000000000000000000000000000815260040161140490612462565b60405180910390fd5b5b6000600160008381526020019081526020016000208190555060006002828154811061143d5761143c6128aa565b5b906000526020600020906009020160030181905550600060028281548110611468576114676128aa565b5b906000526020600020906009020160040181905550600060028281548110611493576114926128aa565b5b906000526020600020906009020160020160006101000a81548173ffffffffffffffffffffffffffffffffffffffff021916908373ffffffffffffffffffffffffffffffffffffffff1602179055506000600282815481106114f8576114f76128aa565b5b906000526020600020906009020160080160006101000a81548160ff0219169083151502179055507f63035a39d22541311d0fe6fa16d0115f4b93d5b4ee333b582e41d6ca51308ba68160405161154f91906124a2565b60405180910390a150565b6002818154811061156e5761156d6128aa565b5b906000526020600020906009020160010160009054906101000a900473ffffffffffffffffffffffffffffffffffffffff1673ffffffffffffffffffffffffffffffffffffffff163373ffffffffffffffffffffffffffffffffffffffff16141561160e576040517f08c379a0000000000000000000000000000000000000000000000000000000008152600401611605906123e2565b60405180910390fd5b60028181548110611622576116216128aa565b5b906000526020600020906009020160080160009054906101000a900460ff1615611681576040517f08c379a000000000000000000000000000000000000000000000000000000000815260040161167890612422565b60405180910390fd5b3460028281548110611696576116956128aa565b5b90600052602060002090600902016007015411156116e9576040517f08c379a00000000000000000000000000000000000000000000000000000000081526004016116e0906123a2565b60405180910390fd5b6000600282815481106116ff576116fe6128aa565b5b9060005260206000209060090201600701543461171c91906125cf565b905060028281548110611732576117316128aa565b5b90600052602060002090600902016007015460016000848152602001908152602001600020819055506002828154811061176f5761176e6128aa565b5b906000526020600020906009020160010160009054906101000a900473ffffffffffffffffffffffffffffffffffffffff1673ffffffffffffffffffffffffffffffffffffffff166108fc600284815481106117ce576117cd6128aa565b5b906000526020600020906009020160070154346117eb919061265a565b9081150290604051600060405180830381858888f19350505050611844576040517f08c379a000000000000000000000000000000000000000000000000000000000815260040161183b90612462565b60405180910390fd5b4260028381548110611859576118586128aa565b5b9060005260206000209060090201600301819055508062278d0061187d9190612600565b426118889190612579565b6002838154811061189c5761189b6128aa565b5b90600052602060002090600902016004018190555033600283815481106118c6576118c56128aa565b5b906000526020600020906009020160020160006101000a81548173ffffffffffffffffffffffffffffffffffffffff021916908373ffffffffffffffffffffffffffffffffffffffff16021790555060016002838154811061192b5761192a6128aa565b5b906000526020600020906009020160080160006101000a81548160ff0219169083151502179055507f1b0e113c662bd1138cab9b433365de8bb2b82f5a331b087e287ec25abeb0464f60028381548110611988576119876128aa565b5b906000526020600020906009020160010160009054906101000a900473ffffffffffffffffffffffffffffffffffffffff16600284815481106119ce576119cd6128aa565b5b906000526020600020906009020160020160009054906101000a900473ffffffffffffffffffffffffffffffffffffffff168460028681548110611a1557611a146128aa565b5b90600052602060002090600902016003015460028781548110611a3b57611a3a6128aa565b5b90600052602060002090600902016004015460028881548110611a6157611a606128aa565b5b906000526020600020906009020160070154604051611a85969594939291906122f6565b60405180910390a15050565b60606002805480602002602001604051908101604052809291908181526020016000905b82821015611cfb578382906000526020600020906009020160405180610120016040529081600082015481526020016001820160009054906101000a900473ffffffffffffffffffffffffffffffffffffffff1673ffffffffffffffffffffffffffffffffffffffff1673ffffffffffffffffffffffffffffffffffffffff1681526020016002820160009054906101000a900473ffffffffffffffffffffffffffffffffffffffff1673ffffffffffffffffffffffffffffffffffffffff1673ffffffffffffffffffffffffffffffffffffffff1681526020016003820154815260200160048201548152602001600582018054611bb390612742565b80601f0160208091040260200160405190810160405280929190818152602001828054611bdf90612742565b8015611c2c5780601f10611c0157610100808354040283529160200191611c2c565b820191906000526020600020905b815481529060010190602001808311611c0f57829003601f168201915b50505050508152602001600682018054611c4590612742565b80601f0160208091040260200160405190810160405280929190818152602001828054611c7190612742565b8015611cbe5780601f10611c9357610100808354040283529160200191611cbe565b820191906000526020600020905b815481529060010190602001808311611ca157829003601f168201915b50505050508152602001600782015481526020016008820160009054906101000a900460ff16151515158152505081526020019060010190611ab5565b50505050905090565b828054611d1090612742565b90600052602060002090601f016020900481019282611d325760008555611d80565b82601f10611d435780548555611d80565b82800160010185558215611d8057600052602060002091601f016020900482015b82811115611d7f578254825591600101919060010190611d64565b5b509050611d8d9190611e57565b5090565b828054611d9d90612742565b90600052602060002090601f016020900481019282611dbf5760008555611e06565b82601f10611dd857805160ff1916838001178555611e06565b82800160010185558215611e06579182015b82811115611e05578251825591602001919060010190611dea565b5b509050611e139190611e57565b5090565b508054611e2390612742565b6000825580601f10611e355750611e54565b601f016020900490600052602060002090810190611e539190611e57565b5b50565b5b80821115611e70576000816000905550600101611e58565b5090565b6000611e87611e82846124e2565b6124bd565b905082815260208101848484011115611ea357611ea261290d565b5b611eae8482856126d6565b509392505050565b600082601f830112611ecb57611eca612908565b5b8135611edb848260208601611e74565b91505092915050565b600081359050611ef381612a75565b92915050565b60008060008060808587031215611f1357611f12612917565b5b600085013567ffffffffffffffff811115611f3157611f30612912565b5b611f3d87828801611eb6565b945050602085013567ffffffffffffffff811115611f5e57611f5d612912565b5b611f6a87828801611eb6565b9350506040611f7b87828801611ee4565b9250506060611f8c87828801611ee4565b91505092959194509250565b600060208284031215611fae57611fad612917565b5b6000611fbc84828501611ee4565b91505092915050565b60008060408385031215611fdc57611fdb612917565b5b6000611fea85828601611ee4565b9250506020611ffb85828601611ee4565b9150509250929050565b6000612011838361220c565b905092915050565b6120228161268e565b82525050565b6120318161268e565b82525050565b600061204282612523565b61204c8185612546565b93508360208202850161205e85612513565b8060005b8581101561209a578484038952815161207b8582612005565b945061208683612539565b925060208a01995050600181019050612062565b50829750879550505050505092915050565b6120b5816126a0565b82525050565b60006120c68261252e565b6120d08185612557565b93506120e08185602086016126e5565b6120e98161291c565b840191505092915050565b6000612101601083612568565b915061210c8261292d565b602082019050919050565b6000612124602083612568565b915061212f82612956565b602082019050919050565b6000612147601a83612568565b91506121528261297f565b602082019050919050565b600061216a601683612568565b9150612175826129a8565b602082019050919050565b600061218d600c83612568565b9150612198826129d1565b602082019050919050565b60006121b0601783612568565b91506121bb826129fa565b602082019050919050565b60006121d3601683612568565b91506121de82612a23565b602082019050919050565b60006121f6601e83612568565b915061220182612a4c565b602082019050919050565b60006101208301600083015161222560008601826122d8565b5060208301516122386020860182612019565b50604083015161224b6040860182612019565b50606083015161225e60608601826122d8565b50608083015161227160808601826122d8565b5060a083015184820360a086015261228982826120bb565b91505060c083015184820360c08601526122a382826120bb565b91505060e08301516122b860e08601826122d8565b506101008301516122cd6101008601826120ac565b508091505092915050565b6122e1816126cc565b82525050565b6122f0816126cc565b82525050565b600060c08201905061230b6000830189612028565b6123186020830188612028565b61232560408301876122e7565b61233260608301866122e7565b61233f60808301856122e7565b61234c60a08301846122e7565b979650505050505050565b600060408201905061236c6000830185612028565b61237960208301846122e7565b9392505050565b6000602082019050818103600083015261239a8184612037565b905092915050565b600060208201905081810360008301526123bb816120f4565b9050919050565b600060208201905081810360008301526123db81612117565b9050919050565b600060208201905081810360008301526123fb8161213a565b9050919050565b6000602082019050818103600083015261241b8161215d565b9050919050565b6000602082019050818103600083015261243b81612180565b9050919050565b6000602082019050818103600083015261245b816121a3565b9050919050565b6000602082019050818103600083015261247b816121c6565b9050919050565b6000602082019050818103600083015261249b816121e9565b9050919050565b60006020820190506124b760008301846122e7565b92915050565b60006124c76124d8565b90506124d38282612774565b919050565b6000604051905090565b600067ffffffffffffffff8211156124fd576124fc6128d9565b5b6125068261291c565b9050602081019050919050565b6000819050602082019050919050565b600081519050919050565b600081519050919050565b6000602082019050919050565b600082825260208201905092915050565b600082825260208201905092915050565b600082825260208201905092915050565b6000612584826126cc565b915061258f836126cc565b9250827fffffffffffffffffffffffffffffffffffffffffffffffffffffffffffffffff038211156125c4576125c36127ee565b5b828201905092915050565b60006125da826126cc565b91506125e5836126cc565b9250826125f5576125f461281d565b5b828204905092915050565b600061260b826126cc565b9150612616836126cc565b9250817fffffffffffffffffffffffffffffffffffffffffffffffffffffffffffffffff048311821515161561264f5761264e6127ee565b5b828202905092915050565b6000612665826126cc565b9150612670836126cc565b925082821015612683576126826127ee565b5b828203905092915050565b6000612699826126ac565b9050919050565b60008115159050919050565b600073ffffffffffffffffffffffffffffffffffffffff82169050919050565b6000819050919050565b82818337600083830152505050565b60005b838110156127035780820151818401526020810190506126e8565b83811115612712576000848401525b50505050565b6000612723826126cc565b91506000821415612737576127366127ee565b5b600182039050919050565b6000600282049050600182168061275a57607f821691505b6020821081141561276e5761276d61284c565b5b50919050565b61277d8261291c565b810181811067ffffffffffffffff8211171561279c5761279b6128d9565b5b80604052505050565b60006127b0826126cc565b91507fffffffffffffffffffffffffffffffffffffffffffffffffffffffffffffffff8214156127e3576127e26127ee565b5b600182019050919050565b7f4e487b7100000000000000000000000000000000000000000000000000000000600052601160045260246000fd5b7f4e487b7100000000000000000000000000000000000000000000000000000000600052601260045260246000fd5b7f4e487b7100000000000000000000000000000000000000000000000000000000600052602260045260246000fd5b7f4e487b7100000000000000000000000000000000000000000000000000000000600052603160045260246000fd5b7f4e487b7100000000000000000000000000000000000000000000000000000000600052603260045260246000fd5b7f4e487b7100000000000000000000000000000000000000000000000000000000600052604160045260246000fd5b600080fd5b600080fd5b600080fd5b600080fd5b6000601f19601f8301169050919050565b7f4e6f7420656e6f756768206d6f6e657900000000000000000000000000000000600082015250565b7f53656e6465722073686f756c64206265206f776e6572206f722072656e746572600082015250565b7f53656e6465722073686f756c64206265206e6f74206f776e6572000000000000600082015250565b7f53656e6465722073686f756c64206265206f776e657200000000000000000000600082015250565b7f416c72656164792072656e740000000000000000000000000000000000000000600082015250565b7f53656e6465722073686f756c642062652072656e746572000000000000000000600082015250565b7f4f6f70732c20736f6d657468696e67206661696c656400000000000000000000600082015250565b7f4b657920616e642070726963652063616e277420626520657175616c20300000600082015250565b612a7e816126cc565b8114612a8957600080fd5b5056fea264697066735822122092e578c674ffc91cc604b7d3c4ba35ff4ad192cd2cfa16440cbc315aa53b4a3864736f6c63430008060033",
  "immutableReferences": {},
  "source": "pragma experimental ABIEncoderV2;\npragma solidity >=0.8.0 <0.9.0;\n\ncontract Rent {\n    mapping(uint => uint) keys;\n    mapping(uint => uint) deposit;\n    struct Room  {\n        uint ID;\n        address payable Owner;\n        address payable RentOwner;\n        uint TimeDeal;\n        uint TimeRentEnded;\n        string Name;\n        string Description;\n        uint Price;\n        bool Rented;\n    }\n    Room[] rooms;\n    \n    constructor() payable {}\n\n    fallback() external payable{}\n    receive() external payable{}\n\n    function getBalance() public view returns(uint){\n        return address(this).balance;\n    }\n\n    event SellRoom (address payable _owner, uint _price);\n    event RentRoom (address payable _owner, address payable _rentOwner, uint _id,uint _timeDeal, uint _timeRentEnded,uint _price);\n    event CloseRoomOwnerForever(address payable _owner, uint _id);\n    event CloseRoomRenter(uint _id);\n    event CloseRoomOwnerFromThisRenter(address payable _owner, uint _id);\n    event ChangeKey(uint _id);\n\n    function sellRoom(string memory _name, string memory _description, uint _key, uint _price) public payable {\n        require(_price != 0 && _key != 0, \"Key and price can't be equal 0\");\n        keys[rooms.length] = _key;\n        rooms.push(Room(rooms.length, payable(msg.sender), payable(address(0)), 0, 0, _name, _description, _price, false));\n        emit SellRoom(payable(msg.sender), _price);\n    }\n\n    function getAllRooms() public view returns(Room[] memory _rooms){\n        _rooms = rooms;\n    }\n\n    function rentRoom (uint _id) public payable {\n        require(msg.sender != rooms[_id].Owner, 'Sender should be not owner');\n        require(!rooms[_id].Rented, 'Already rent');\n        require(rooms[_id].Price <= msg.value, 'Not enough money');\n        uint monthRent = msg.value / rooms[_id].Price;\n        deposit[_id] = rooms[_id].Price;\n        require(rooms[_id].Owner.send(msg.value - rooms[_id].Price), 'Oops, something failed');\n        rooms[_id].TimeDeal = block.timestamp;\n        rooms[_id].TimeRentEnded = block.timestamp + (30 days * monthRent);\n        rooms[_id].RentOwner = payable(msg.sender);\n        rooms[_id].Rented = true;\n        emit RentRoom(rooms[_id].Owner, rooms[_id].RentOwner, _id ,rooms[_id].TimeDeal, rooms[_id].TimeRentEnded, rooms[_id].Price);\n    }\n    \n    function closeRoomRenter (uint _id) public payable {\n        require(msg.sender == rooms[_id].RentOwner, 'Sender should be renter');\n        if (rooms[_id].TimeDeal != 0){\n            require(rooms[_id].RentOwner.send(deposit[_id]), 'Oops, something failed');           \n        }\n        deposit[_id] = 0;\n        rooms[_id].TimeDeal = 0;\n        rooms[_id].TimeRentEnded = 0;\n        rooms[_id].RentOwner = payable(address(0));\n        rooms[_id].Rented = false;\n        emit CloseRoomRenter(_id);\n    }\n    \n    function closeRoomOwnerForever (uint _id) public payable {\n        require(msg.sender == rooms[_id].Owner, 'Sender should be owner');\n        if (msg.value != 0 && rooms[_id].TimeDeal != 0){\n            require(rooms[_id].RentOwner.send(msg.value + deposit[_id]),  'Oops, something failed');           \n        }\n        deposit[_id] =0;\n        if (_id >= rooms.length) return;\n\n        for (uint i = _id; i<rooms.length-1; i++){\n            Room memory futureLast = rooms[i];\n            rooms[i] = rooms[i+1];\n            rooms[i].ID--;\n            rooms[i+1] = futureLast;\n            rooms[i+1].ID++;\n        }\n\n        rooms.pop();\n        emit CloseRoomOwnerForever(payable(msg.sender), _id);\n    }\n\n    function closeRoomOwnerFromThisRenter (uint _id) public payable {\n        require(msg.sender == rooms[_id].Owner, 'Sender should be owner');\n        if (msg.value != 0 && rooms[_id].TimeDeal != 0){\n            require(rooms[_id].RentOwner.send(msg.value + deposit[_id]));           \n        }\n        deposit[_id] =0;\n        rooms[_id].RentOwner = payable(address(0));\n        rooms[_id].TimeDeal = 0;\n        rooms[_id].TimeRentEnded = 0;\n        rooms[_id].Rented = false;\n        emit CloseRoomOwnerFromThisRenter(payable(msg.sender), _id);\n    }\n\n    function changeKey(uint _id, uint _newKey) public{\n        require(msg.sender == rooms[_id].Owner, 'Sender should be owner');\n        keys[_id] = _newKey;\n        emit ChangeKey(_id);\n    }\n\n    function getKey(uint _id) public view returns(uint){\n        require(msg.sender == rooms[_id].Owner || msg.sender == rooms[_id].RentOwner, 'Sender should be owner or renter');\n        return keys[_id];\n    }\n}   ",
  "sourcePath": "/home/egor//WorkplaceSmartContracts/rent/contracts/Rent.sol",
  "compiler": {
    "name": "solc",
    "version": "0.8.6+commit.11564f7e.Emscripten.clang"
  },
  "schemaVersion": "3.4.1",
  "updatedAt": "2021-07-04T19:42:50.753Z",
  "networkType": "ethereum",
  "devdoc": {
    "kind": "dev",
    "methods": {},
    "version": 1
  },
  "userdoc": {
    "kind": "user",
    "methods": {},
    "version": 1
  }
}