{
  "contractName": "Rent",
  "abi": [
    {
      "inputs": [],
      "stateMutability": "payable",
      "type": "constructor",
      "payable": true
    },
    {
      "anonymous": false,
      "inputs": [
        {
          "indexed": false,
          "internalType": "uint256",
          "name": "_id",
          "type": "uint256"
        }
      ],
      "name": "ChangeKey",
      "type": "event"
    },
    {
      "anonymous": false,
      "inputs": [
        {
          "indexed": false,
          "internalType": "address payable",
          "name": "_owner",
          "type": "address"
        },
        {
          "indexed": false,
          "internalType": "uint256",
          "name": "_id",
          "type": "uint256"
        }
      ],
      "name": "CloseRoomOwnerForever",
      "type": "event"
    },
    {
      "anonymous": false,
      "inputs": [
        {
          "indexed": false,
          "internalType": "address payable",
          "name": "_owner",
          "type": "address"
        },
        {
          "indexed": false,
          "internalType": "uint256",
          "name": "_id",
          "type": "uint256"
        }
      ],
      "name": "CloseRoomOwnerFromThisRenter",
      "type": "event"
    },
    {
      "anonymous": false,
      "inputs": [
        {
          "indexed": false,
          "internalType": "uint256",
          "name": "_id",
          "type": "uint256"
        }
      ],
      "name": "CloseRoomRenter",
      "type": "event"
    },
    {
      "anonymous": false,
      "inputs": [
        {
          "indexed": false,
          "internalType": "address payable",
          "name": "_owner",
          "type": "address"
        },
        {
          "indexed": false,
          "internalType": "address payable",
          "name": "_rentOwner",
          "type": "address"
        },
        {
          "indexed": false,
          "internalType": "uint256",
          "name": "_id",
          "type": "uint256"
        },
        {
          "indexed": false,
          "internalType": "uint256",
          "name": "_timeDeal",
          "type": "uint256"
        },
        {
          "indexed": false,
          "internalType": "uint256",
          "name": "_timeRentEnded",
          "type": "uint256"
        },
        {
          "indexed": false,
          "internalType": "uint256",
          "name": "_price",
          "type": "uint256"
        }
      ],
      "name": "RentRoom",
      "type": "event"
    },
    {
      "anonymous": false,
      "inputs": [
        {
          "indexed": false,
          "internalType": "address payable",
          "name": "_owner",
          "type": "address"
        },
        {
          "indexed": false,
          "internalType": "uint256",
          "name": "_price",
          "type": "uint256"
        }
      ],
      "name": "SellRoom",
      "type": "event"
    },
    {
      "stateMutability": "payable",
      "type": "fallback",
      "payable": true
    },
    {
      "stateMutability": "payable",
      "type": "receive",
      "payable": true
    },
    {
      "inputs": [],
      "name": "getBalance",
      "outputs": [
        {
          "internalType": "uint256",
          "name": "",
          "type": "uint256"
        }
      ],
      "stateMutability": "view",
      "type": "function",
      "constant": true
    },
    {
      "inputs": [
        {
          "internalType": "address",
          "name": "_addr",
          "type": "address"
        }
      ],
      "name": "getAnotherBalance",
      "outputs": [
        {
          "internalType": "uint256",
          "name": "",
          "type": "uint256"
        }
      ],
      "stateMutability": "view",
      "type": "function",
      "constant": true
    },
    {
      "inputs": [
        {
          "internalType": "string",
          "name": "_name",
          "type": "string"
        },
        {
          "internalType": "string",
          "name": "_description",
          "type": "string"
        },
        {
          "internalType": "uint256",
          "name": "_key",
          "type": "uint256"
        },
        {
          "internalType": "uint256",
          "name": "_price",
          "type": "uint256"
        }
      ],
      "name": "sellRoom",
      "outputs": [],
      "stateMutability": "payable",
      "type": "function",
      "payable": true
    },
    {
      "inputs": [],
      "name": "getAllRooms",
      "outputs": [
        {
          "components": [
            {
              "internalType": "uint256",
              "name": "ID",
              "type": "uint256"
            },
            {
              "internalType": "address payable",
              "name": "Owner",
              "type": "address"
            },
            {
              "internalType": "address payable",
              "name": "RentOwner",
              "type": "address"
            },
            {
              "internalType": "uint256",
              "name": "TimeDeal",
              "type": "uint256"
            },
            {
              "internalType": "uint256",
              "name": "TimeRentEnded",
              "type": "uint256"
            },
            {
              "internalType": "string",
              "name": "Name",
              "type": "string"
            },
            {
              "internalType": "string",
              "name": "Description",
              "type": "string"
            },
            {
              "internalType": "uint256",
              "name": "Price",
              "type": "uint256"
            },
            {
              "internalType": "bool",
              "name": "Rented",
              "type": "bool"
            }
          ],
          "internalType": "struct Rent.Room[]",
          "name": "_rooms",
          "type": "tuple[]"
        }
      ],
      "stateMutability": "view",
      "type": "function",
      "constant": true
    },
    {
      "inputs": [
        {
          "internalType": "uint256",
          "name": "_id",
          "type": "uint256"
        }
      ],
      "name": "rentRoom",
      "outputs": [],
      "stateMutability": "payable",
      "type": "function",
      "payable": true
    },
    {
      "inputs": [
        {
          "internalType": "uint256",
          "name": "_id",
          "type": "uint256"
        }
      ],
      "name": "closeRoomRenter",
      "outputs": [],
      "stateMutability": "payable",
      "type": "function",
      "payable": true
    },
    {
      "inputs": [
        {
          "internalType": "uint256",
          "name": "_id",
          "type": "uint256"
        }
      ],
      "name": "closeRoomOwnerForever",
      "outputs": [],
      "stateMutability": "payable",
      "type": "function",
      "payable": true
    },
    {
      "inputs": [
        {
          "internalType": "uint256",
          "name": "_id",
          "type": "uint256"
        }
      ],
      "name": "closeRoomOwnerFromThisRenter",
      "outputs": [],
      "stateMutability": "payable",
      "type": "function",
      "payable": true
    },
    {
      "inputs": [
        {
          "internalType": "uint256",
          "name": "_id",
          "type": "uint256"
        }
      ],
      "name": "getDeposit",
      "outputs": [
        {
          "internalType": "uint256",
          "name": "",
          "type": "uint256"
        }
      ],
      "stateMutability": "view",
      "type": "function",
      "constant": true
    },
    {
      "inputs": [
        {
          "internalType": "uint256",
          "name": "_id",
          "type": "uint256"
        },
        {
          "internalType": "uint256",
          "name": "_newKey",
          "type": "uint256"
        }
      ],
      "name": "changeKey",
      "outputs": [],
      "stateMutability": "nonpayable",
      "type": "function"
    },
    {
      "inputs": [
        {
          "internalType": "uint256",
          "name": "_id",
          "type": "uint256"
        }
      ],
      "name": "getKey",
      "outputs": [
        {
          "internalType": "uint256",
          "name": "",
          "type": "uint256"
        }
      ],
      "stateMutability": "view",
      "type": "function",
      "constant": true
    }
  ],
  "bytecode": "0x6080604052612bfb806100136000396000f3fe6080604052600436106100a05760003560e01c8063a9de4bc711610064578063a9de4bc714610172578063bb5b27e11461018e578063cf53be75146101cb578063f5494b51146101e7578063f794cf2d14610203578063fa160ce91461022e576100a7565b806312065fe0146100a957806376479255146100d457806384a3fd6f146100f05780639ddde81c1461010c5780639f9fb96814610135576100a7565b366100a757005b005b3480156100b557600080fd5b506100be61026b565b6040516100cb91906125b2565b60405180910390f35b6100ee60048036038101906100e991906120a8565b610273565b005b61010a600480360381019061010591906120a8565b610552565b005b34801561011857600080fd5b50610133600480360381019061012e91906120d5565b610e41565b005b34801561014157600080fd5b5061015c600480360381019061015791906120a8565b610f46565b60405161016991906125b2565b60405180910390f35b61018c60048036038101906101879190612009565b610f63565b005b34801561019a57600080fd5b506101b560048036038101906101b091906120a8565b6111c4565b6040516101c291906125b2565b60405180910390f35b6101e560048036038101906101e091906120a8565b61130e565b005b61020160048036038101906101fc91906120a8565b611607565b005b34801561020f57600080fd5b50610218611b3e565b6040516102259190612490565b60405180910390f35b34801561023a57600080fd5b5061025560048036038101906102509190611fdc565b611db1565b60405161026291906125b2565b60405180910390f35b600047905090565b60028181548110610287576102866129cc565b5b906000526020600020906009020160010160009054906101000a900473ffffffffffffffffffffffffffffffffffffffff1673ffffffffffffffffffffffffffffffffffffffff163373ffffffffffffffffffffffffffffffffffffffff1614610326576040517f08c379a000000000000000000000000000000000000000000000000000000000815260040161031d90612512565b60405180910390fd5b6000341415801561035d5750600060028281548110610348576103476129cc565b5b90600052602060002090600902016003015414155b156104045760028181548110610376576103756129cc565b5b906000526020600020906009020160020160009054906101000a900473ffffffffffffffffffffffffffffffffffffffff1673ffffffffffffffffffffffffffffffffffffffff166108fc6001600084815260200190815260200160002054346103e09190612689565b9081150290604051600060405180830381858888f1935050505061040357600080fd5b5b60006001600083815260200190815260200160002081905550600060028281548110610433576104326129cc565b5b906000526020600020906009020160020160006101000a81548173ffffffffffffffffffffffffffffffffffffffff021916908373ffffffffffffffffffffffffffffffffffffffff160217905550600060028281548110610498576104976129cc565b5b9060005260206000209060090201600301819055506000600282815481106104c3576104c26129cc565b5b9060005260206000209060090201600401819055506000600282815481106104ee576104ed6129cc565b5b906000526020600020906009020160080160006101000a81548160ff0219169083151502179055507f907825b73e7dab4fb174ffd002a1becd876d6d79690d88fdc5d5eca715f32d4a3382604051610547929190612467565b60405180910390a150565b60028181548110610566576105656129cc565b5b906000526020600020906009020160010160009054906101000a900473ffffffffffffffffffffffffffffffffffffffff1673ffffffffffffffffffffffffffffffffffffffff163373ffffffffffffffffffffffffffffffffffffffff1614610605576040517f08c379a00000000000000000000000000000000000000000000000000000000081526004016105fc90612512565b60405180910390fd5b6000341415801561063c5750600060028281548110610627576106266129cc565b5b90600052602060002090600902016003015414155b156107195760028181548110610655576106546129cc565b5b906000526020600020906009020160020160009054906101000a900473ffffffffffffffffffffffffffffffffffffffff1673ffffffffffffffffffffffffffffffffffffffff166108fc6001600084815260200190815260200160002054346106bf9190612689565b9081150290604051600060405180830381858888f19350505050610718576040517f08c379a000000000000000000000000000000000000000000000000000000000815260040161070f90612572565b60405180910390fd5b5b60006001600083815260200190815260200160002081905550600280549050811061074357610e3e565b60008190505b600160028054905061075b919061276a565b811015610d3657600060028281548110610778576107776129cc565b5b906000526020600020906009020160405180610120016040529081600082015481526020016001820160009054906101000a900473ffffffffffffffffffffffffffffffffffffffff1673ffffffffffffffffffffffffffffffffffffffff1673ffffffffffffffffffffffffffffffffffffffff1681526020016002820160009054906101000a900473ffffffffffffffffffffffffffffffffffffffff1673ffffffffffffffffffffffffffffffffffffffff1673ffffffffffffffffffffffffffffffffffffffff168152602001600382015481526020016004820154815260200160058201805461086c90612864565b80601f016020809104026020016040519081016040528092919081815260200182805461089890612864565b80156108e55780601f106108ba576101008083540402835291602001916108e5565b820191906000526020600020905b8154815290600101906020018083116108c857829003601f168201915b505050505081526020016006820180546108fe90612864565b80601f016020809104026020016040519081016040528092919081815260200182805461092a90612864565b80156109775780601f1061094c57610100808354040283529160200191610977565b820191906000526020600020905b81548152906001019060200180831161095a57829003601f168201915b50505050508152602001600782015481526020016008820160009054906101000a900460ff161515151581525050905060026001836109b69190612689565b815481106109c7576109c66129cc565b5b9060005260206000209060090201600283815481106109e9576109e86129cc565b5b9060005260206000209060090201600082015481600001556001820160009054906101000a900473ffffffffffffffffffffffffffffffffffffffff168160010160006101000a81548173ffffffffffffffffffffffffffffffffffffffff021916908373ffffffffffffffffffffffffffffffffffffffff1602179055506002820160009054906101000a900473ffffffffffffffffffffffffffffffffffffffff168160020160006101000a81548173ffffffffffffffffffffffffffffffffffffffff021916908373ffffffffffffffffffffffffffffffffffffffff16021790555060038201548160030155600482015481600401556005820181600501908054610af790612864565b610b02929190611dd2565b506006820181600601908054610b1790612864565b610b22929190611dd2565b50600782015481600701556008820160009054906101000a900460ff168160080160006101000a81548160ff02191690831515021790555090505060028281548110610b7157610b706129cc565b5b90600052602060002090600902016000016000815480929190610b939061283a565b9190505550806002600184610ba89190612689565b81548110610bb957610bb86129cc565b5b90600052602060002090600902016000820151816000015560208201518160010160006101000a81548173ffffffffffffffffffffffffffffffffffffffff021916908373ffffffffffffffffffffffffffffffffffffffff16021790555060408201518160020160006101000a81548173ffffffffffffffffffffffffffffffffffffffff021916908373ffffffffffffffffffffffffffffffffffffffff160217905550606082015181600301556080820151816004015560a0820151816005019080519060200190610c8f929190611e5f565b5060c0820151816006019080519060200190610cac929190611e5f565b5060e082015181600701556101008201518160080160006101000a81548160ff0219169083151502179055509050506002600183610cea9190612689565b81548110610cfb57610cfa6129cc565b5b90600052602060002090600902016000016000815480929190610d1d906128c7565b9190505550508080610d2e906128c7565b915050610749565b506002805480610d4957610d4861299d565b5b60019003818190600052602060002090600902016000808201600090556001820160006101000a81549073ffffffffffffffffffffffffffffffffffffffff02191690556002820160006101000a81549073ffffffffffffffffffffffffffffffffffffffff021916905560038201600090556004820160009055600582016000610dd49190611ee5565b600682016000610de49190611ee5565b60078201600090556008820160006101000a81549060ff0219169055505090557f582db14e0ca83e5a4fff9f1c06c21038e3d9fed9de9bc355668e1ac999f4427b3382604051610e35929190612467565b60405180910390a15b50565b60028281548110610e5557610e546129cc565b5b906000526020600020906009020160010160009054906101000a900473ffffffffffffffffffffffffffffffffffffffff1673ffffffffffffffffffffffffffffffffffffffff163373ffffffffffffffffffffffffffffffffffffffff1614610ef4576040517f08c379a0000000000000000000000000000000000000000000000000000000008152600401610eeb90612512565b60405180910390fd5b80600080848152602001908152602001600020819055507faba8af5d5b4392842577d3ed2da50560ff0c1c7faf476af69e05b783360d4e7a82604051610f3a91906125b2565b60405180910390a15050565b600060016000838152602001908152602001600020549050919050565b60008114158015610f75575060008214155b610fb4576040517f08c379a0000000000000000000000000000000000000000000000000000000008152600401610fab90612592565b60405180910390fd5b81600080600280549050815260200190815260200160002081905550600260405180610120016040528060028054905081526020013373ffffffffffffffffffffffffffffffffffffffff168152602001600073ffffffffffffffffffffffffffffffffffffffff16815260200160008152602001600081526020018681526020018581526020018381526020016000151581525090806001815401808255809150506001900390600052602060002090600902016000909190919091506000820151816000015560208201518160010160006101000a81548173ffffffffffffffffffffffffffffffffffffffff021916908373ffffffffffffffffffffffffffffffffffffffff16021790555060408201518160020160006101000a81548173ffffffffffffffffffffffffffffffffffffffff021916908373ffffffffffffffffffffffffffffffffffffffff160217905550606082015181600301556080820151816004015560a082015181600501908051906020019061113a929190611e5f565b5060c0820151816006019080519060200190611157929190611e5f565b5060e082015181600701556101008201518160080160006101000a81548160ff02191690831515021790555050507fdbd9f31c8b270d29f0c9026d6a8a21187b75675b96fa4a674de1e9907b2565ff33826040516111b6929190612467565b60405180910390a150505050565b6000600282815481106111da576111d96129cc565b5b906000526020600020906009020160010160009054906101000a900473ffffffffffffffffffffffffffffffffffffffff1673ffffffffffffffffffffffffffffffffffffffff163373ffffffffffffffffffffffffffffffffffffffff1614806112b5575060028281548110611254576112536129cc565b5b906000526020600020906009020160020160009054906101000a900473ffffffffffffffffffffffffffffffffffffffff1673ffffffffffffffffffffffffffffffffffffffff163373ffffffffffffffffffffffffffffffffffffffff16145b6112f4576040517f08c379a00000000000000000000000000000000000000000000000000000000081526004016112eb906124d2565b60405180910390fd5b600080838152602001908152602001600020549050919050565b60028181548110611322576113216129cc565b5b906000526020600020906009020160020160009054906101000a900473ffffffffffffffffffffffffffffffffffffffff1673ffffffffffffffffffffffffffffffffffffffff163373ffffffffffffffffffffffffffffffffffffffff16146113c1576040517f08c379a00000000000000000000000000000000000000000000000000000000081526004016113b890612552565b60405180910390fd5b6000600282815481106113d7576113d66129cc565b5b906000526020600020906009020160030154146114bb5760028181548110611402576114016129cc565b5b906000526020600020906009020160020160009054906101000a900473ffffffffffffffffffffffffffffffffffffffff1673ffffffffffffffffffffffffffffffffffffffff166108fc60016000848152602001908152602001600020549081150290604051600060405180830381858888f193505050506114ba576040517f08c379a00000000000000000000000000000000000000000000000000000000081526004016114b190612572565b60405180910390fd5b5b600060016000838152602001908152602001600020819055506000600282815481106114ea576114e96129cc565b5b906000526020600020906009020160030181905550600060028281548110611515576115146129cc565b5b9060005260206000209060090201600401819055506000600282815481106115405761153f6129cc565b5b906000526020600020906009020160020160006101000a81548173ffffffffffffffffffffffffffffffffffffffff021916908373ffffffffffffffffffffffffffffffffffffffff1602179055506000600282815481106115a5576115a46129cc565b5b906000526020600020906009020160080160006101000a81548160ff0219169083151502179055507f63035a39d22541311d0fe6fa16d0115f4b93d5b4ee333b582e41d6ca51308ba6816040516115fc91906125b2565b60405180910390a150565b6002818154811061161b5761161a6129cc565b5b906000526020600020906009020160010160009054906101000a900473ffffffffffffffffffffffffffffffffffffffff1673ffffffffffffffffffffffffffffffffffffffff163373ffffffffffffffffffffffffffffffffffffffff1614156116bb576040517f08c379a00000000000000000000000000000000000000000000000000000000081526004016116b2906124f2565b60405180910390fd5b600281815481106116cf576116ce6129cc565b5b906000526020600020906009020160080160009054906101000a900460ff161561172e576040517f08c379a000000000000000000000000000000000000000000000000000000000815260040161172590612532565b60405180910390fd5b3460028281548110611743576117426129cc565b5b9060005260206000209060090201600701541115611796576040517f08c379a000000000000000000000000000000000000000000000000000000000815260040161178d906124b2565b60405180910390fd5b6000600282815481106117ac576117ab6129cc565b5b906000526020600020906009020160070154346117c991906126df565b9050600282815481106117df576117de6129cc565b5b90600052602060002090600902016007015460016000848152602001908152602001600020819055506002828154811061181c5761181b6129cc565b5b906000526020600020906009020160010160009054906101000a900473ffffffffffffffffffffffffffffffffffffffff1673ffffffffffffffffffffffffffffffffffffffff166108fc6002848154811061187b5761187a6129cc565b5b90600052602060002090600902016007015434611898919061276a565b9081150290604051600060405180830381858888f193505050506118f1576040517f08c379a00000000000000000000000000000000000000000000000000000000081526004016118e890612572565b60405180910390fd5b4260028381548110611906576119056129cc565b5b9060005260206000209060090201600301819055508062278d0061192a9190612710565b426119359190612689565b60028381548110611949576119486129cc565b5b9060005260206000209060090201600401819055503360028381548110611973576119726129cc565b5b906000526020600020906009020160020160006101000a81548173ffffffffffffffffffffffffffffffffffffffff021916908373ffffffffffffffffffffffffffffffffffffffff1602179055506001600283815481106119d8576119d76129cc565b5b906000526020600020906009020160080160006101000a81548160ff0219169083151502179055507f1b0e113c662bd1138cab9b433365de8bb2b82f5a331b087e287ec25abeb0464f60028381548110611a3557611a346129cc565b5b906000526020600020906009020160010160009054906101000a900473ffffffffffffffffffffffffffffffffffffffff1660028481548110611a7b57611a7a6129cc565b5b906000526020600020906009020160020160009054906101000a900473ffffffffffffffffffffffffffffffffffffffff168460028681548110611ac257611ac16129cc565b5b90600052602060002090600902016003015460028781548110611ae857611ae76129cc565b5b90600052602060002090600902016004015460028881548110611b0e57611b0d6129cc565b5b906000526020600020906009020160070154604051611b3296959493929190612406565b60405180910390a15050565b60606002805480602002602001604051908101604052809291908181526020016000905b82821015611da8578382906000526020600020906009020160405180610120016040529081600082015481526020016001820160009054906101000a900473ffffffffffffffffffffffffffffffffffffffff1673ffffffffffffffffffffffffffffffffffffffff1673ffffffffffffffffffffffffffffffffffffffff1681526020016002820160009054906101000a900473ffffffffffffffffffffffffffffffffffffffff1673ffffffffffffffffffffffffffffffffffffffff1673ffffffffffffffffffffffffffffffffffffffff1681526020016003820154815260200160048201548152602001600582018054611c6090612864565b80601f0160208091040260200160405190810160405280929190818152602001828054611c8c90612864565b8015611cd95780601f10611cae57610100808354040283529160200191611cd9565b820191906000526020600020905b815481529060010190602001808311611cbc57829003601f168201915b50505050508152602001600682018054611cf290612864565b80601f0160208091040260200160405190810160405280929190818152602001828054611d1e90612864565b8015611d6b5780601f10611d4057610100808354040283529160200191611d6b565b820191906000526020600020905b815481529060010190602001808311611d4e57829003601f168201915b50505050508152602001600782015481526020016008820160009054906101000a900460ff16151515158152505081526020019060010190611b62565b50505050905090565b60008173ffffffffffffffffffffffffffffffffffffffff16319050919050565b828054611dde90612864565b90600052602060002090601f016020900481019282611e005760008555611e4e565b82601f10611e115780548555611e4e565b82800160010185558215611e4e57600052602060002091601f016020900482015b82811115611e4d578254825591600101919060010190611e32565b5b509050611e5b9190611f25565b5090565b828054611e6b90612864565b90600052602060002090601f016020900481019282611e8d5760008555611ed4565b82601f10611ea657805160ff1916838001178555611ed4565b82800160010185558215611ed4579182015b82811115611ed3578251825591602001919060010190611eb8565b5b509050611ee19190611f25565b5090565b508054611ef190612864565b6000825580601f10611f035750611f22565b601f016020900490600052602060002090810190611f219190611f25565b5b50565b5b80821115611f3e576000816000905550600101611f26565b5090565b6000611f55611f50846125f2565b6125cd565b905082815260208101848484011115611f7157611f70612a2f565b5b611f7c8482856127f8565b509392505050565b600081359050611f9381612b97565b92915050565b600082601f830112611fae57611fad612a2a565b5b8135611fbe848260208601611f42565b91505092915050565b600081359050611fd681612bae565b92915050565b600060208284031215611ff257611ff1612a39565b5b600061200084828501611f84565b91505092915050565b6000806000806080858703121561202357612022612a39565b5b600085013567ffffffffffffffff81111561204157612040612a34565b5b61204d87828801611f99565b945050602085013567ffffffffffffffff81111561206e5761206d612a34565b5b61207a87828801611f99565b935050604061208b87828801611fc7565b925050606061209c87828801611fc7565b91505092959194509250565b6000602082840312156120be576120bd612a39565b5b60006120cc84828501611fc7565b91505092915050565b600080604083850312156120ec576120eb612a39565b5b60006120fa85828601611fc7565b925050602061210b85828601611fc7565b9150509250929050565b6000612121838361231c565b905092915050565b612132816127b0565b82525050565b612141816127b0565b82525050565b600061215282612633565b61215c8185612656565b93508360208202850161216e85612623565b8060005b858110156121aa578484038952815161218b8582612115565b945061219683612649565b925060208a01995050600181019050612172565b50829750879550505050505092915050565b6121c5816127c2565b82525050565b60006121d68261263e565b6121e08185612667565b93506121f0818560208601612807565b6121f981612a3e565b840191505092915050565b6000612211601083612678565b915061221c82612a4f565b602082019050919050565b6000612234602083612678565b915061223f82612a78565b602082019050919050565b6000612257601a83612678565b915061226282612aa1565b602082019050919050565b600061227a601683612678565b915061228582612aca565b602082019050919050565b600061229d600c83612678565b91506122a882612af3565b602082019050919050565b60006122c0601783612678565b91506122cb82612b1c565b602082019050919050565b60006122e3601683612678565b91506122ee82612b45565b602082019050919050565b6000612306601e83612678565b915061231182612b6e565b602082019050919050565b60006101208301600083015161233560008601826123e8565b5060208301516123486020860182612129565b50604083015161235b6040860182612129565b50606083015161236e60608601826123e8565b50608083015161238160808601826123e8565b5060a083015184820360a086015261239982826121cb565b91505060c083015184820360c08601526123b382826121cb565b91505060e08301516123c860e08601826123e8565b506101008301516123dd6101008601826121bc565b508091505092915050565b6123f1816127ee565b82525050565b612400816127ee565b82525050565b600060c08201905061241b6000830189612138565b6124286020830188612138565b61243560408301876123f7565b61244260608301866123f7565b61244f60808301856123f7565b61245c60a08301846123f7565b979650505050505050565b600060408201905061247c6000830185612138565b61248960208301846123f7565b9392505050565b600060208201905081810360008301526124aa8184612147565b905092915050565b600060208201905081810360008301526124cb81612204565b9050919050565b600060208201905081810360008301526124eb81612227565b9050919050565b6000602082019050818103600083015261250b8161224a565b9050919050565b6000602082019050818103600083015261252b8161226d565b9050919050565b6000602082019050818103600083015261254b81612290565b9050919050565b6000602082019050818103600083015261256b816122b3565b9050919050565b6000602082019050818103600083015261258b816122d6565b9050919050565b600060208201905081810360008301526125ab816122f9565b9050919050565b60006020820190506125c760008301846123f7565b92915050565b60006125d76125e8565b90506125e38282612896565b919050565b6000604051905090565b600067ffffffffffffffff82111561260d5761260c6129fb565b5b61261682612a3e565b9050602081019050919050565b6000819050602082019050919050565b600081519050919050565b600081519050919050565b6000602082019050919050565b600082825260208201905092915050565b600082825260208201905092915050565b600082825260208201905092915050565b6000612694826127ee565b915061269f836127ee565b9250827fffffffffffffffffffffffffffffffffffffffffffffffffffffffffffffffff038211156126d4576126d3612910565b5b828201905092915050565b60006126ea826127ee565b91506126f5836127ee565b9250826127055761270461293f565b5b828204905092915050565b600061271b826127ee565b9150612726836127ee565b9250817fffffffffffffffffffffffffffffffffffffffffffffffffffffffffffffffff048311821515161561275f5761275e612910565b5b828202905092915050565b6000612775826127ee565b9150612780836127ee565b92508282101561279357612792612910565b5b828203905092915050565b60006127a9826127ce565b9050919050565b60006127bb826127ce565b9050919050565b60008115159050919050565b600073ffffffffffffffffffffffffffffffffffffffff82169050919050565b6000819050919050565b82818337600083830152505050565b60005b8381101561282557808201518184015260208101905061280a565b83811115612834576000848401525b50505050565b6000612845826127ee565b9150600082141561285957612858612910565b5b600182039050919050565b6000600282049050600182168061287c57607f821691505b602082108114156128905761288f61296e565b5b50919050565b61289f82612a3e565b810181811067ffffffffffffffff821117156128be576128bd6129fb565b5b80604052505050565b60006128d2826127ee565b91507fffffffffffffffffffffffffffffffffffffffffffffffffffffffffffffffff82141561290557612904612910565b5b600182019050919050565b7f4e487b7100000000000000000000000000000000000000000000000000000000600052601160045260246000fd5b7f4e487b7100000000000000000000000000000000000000000000000000000000600052601260045260246000fd5b7f4e487b7100000000000000000000000000000000000000000000000000000000600052602260045260246000fd5b7f4e487b7100000000000000000000000000000000000000000000000000000000600052603160045260246000fd5b7f4e487b7100000000000000000000000000000000000000000000000000000000600052603260045260246000fd5b7f4e487b7100000000000000000000000000000000000000000000000000000000600052604160045260246000fd5b600080fd5b600080fd5b600080fd5b600080fd5b6000601f19601f8301169050919050565b7f4e6f7420656e6f756768206d6f6e657900000000000000000000000000000000600082015250565b7f53656e6465722073686f756c64206265206f776e6572206f722072656e746572600082015250565b7f53656e6465722073686f756c64206265206e6f74206f776e6572000000000000600082015250565b7f53656e6465722073686f756c64206265206f776e657200000000000000000000600082015250565b7f416c72656164792072656e740000000000000000000000000000000000000000600082015250565b7f53656e6465722073686f756c642062652072656e746572000000000000000000600082015250565b7f4f6f70732c20736f6d657468696e67206661696c656400000000000000000000600082015250565b7f4b657920616e642070726963652063616e277420626520657175616c20300000600082015250565b612ba08161279e565b8114612bab57600080fd5b50565b612bb7816127ee565b8114612bc257600080fd5b5056fea26469706673582212208162ef310cb9f0b8f44273fc512d5375c748fd236cdbb6ffef60e0187de55a2664736f6c63430008060033",
  "immutableReferences": {},
  "source": "pragma experimental ABIEncoderV2;\npragma solidity >=0.8.0 <0.9.0;\n\ncontract Rent {\n    mapping(uint => uint) keys;\n    mapping(uint => uint) deposit;\n    struct Room  {\n        uint ID;\n        address payable Owner;\n        address payable RentOwner;\n        uint TimeDeal;\n        uint TimeRentEnded;\n        string Name;\n        string Description;\n        uint Price;\n        bool Rented;\n    }\n    Room[] rooms;\n    \n    constructor() payable {}\n\n    fallback() external payable{}\n    receive() external payable{}\n\n    //    ,   \n    function getBalance() public view returns(uint){\n        return address(this).balance;\n    }\n\n    function getAnotherBalance(address _addr) public view returns(uint) {\n        return _addr.balance;\n    }\n\n    event SellRoom (address payable _owner, uint _price);\n    event RentRoom (address payable _owner, address payable _rentOwner, uint _id,uint _timeDeal, uint _timeRentEnded,uint _price);\n    event CloseRoomOwnerForever(address payable _owner, uint _id);\n    event CloseRoomRenter(uint _id);\n    event CloseRoomOwnerFromThisRenter(address payable _owner, uint _id);\n    event ChangeKey(uint _id);\n\n    /// /  \n    function sellRoom(string memory _name, string memory _description, uint _key, uint _price) public payable {\n        require(_price != 0 && _key != 0, \"Key and price can't be equal 0\");\n        keys[rooms.length] = _key;\n        rooms.push(Room(rooms.length, payable(msg.sender), payable(address(0)), 0, 0, _name, _description, _price, false));\n        emit SellRoom(payable(msg.sender), _price);\n    }\n\n    // /\n    function getAllRooms() public view returns(Room[] memory _rooms){\n        _rooms = rooms;\n    }\n\n    // /\n    function rentRoom (uint _id) public payable {\n        require(msg.sender != rooms[_id].Owner, 'Sender should be not owner');\n        require(!rooms[_id].Rented, 'Already rent');\n        require(rooms[_id].Price <= msg.value, 'Not enough money');\n        //   \n        uint monthRent = msg.value / rooms[_id].Price;\n        //     \n        deposit[_id] = rooms[_id].Price;\n        //  \n        require(rooms[_id].Owner.send(msg.value - rooms[_id].Price), 'Oops, something failed');\n        rooms[_id].TimeDeal = block.timestamp;\n        rooms[_id].TimeRentEnded = block.timestamp + (30 days * monthRent);\n        rooms[_id].RentOwner = payable(msg.sender);\n        rooms[_id].Rented = true;\n        emit RentRoom(rooms[_id].Owner, rooms[_id].RentOwner, _id ,rooms[_id].TimeDeal, rooms[_id].TimeRentEnded, rooms[_id].Price);\n    }\n    \n    // /       \n    function closeRoomRenter (uint _id) public payable {\n        require(msg.sender == rooms[_id].RentOwner, 'Sender should be renter');\n        if (rooms[_id].TimeDeal != 0){\n            require(rooms[_id].RentOwner.send(deposit[_id]), 'Oops, something failed');           \n        }\n        deposit[_id] = 0;\n        rooms[_id].TimeDeal = 0;\n        rooms[_id].TimeRentEnded = 0;\n        rooms[_id].RentOwner = payable(address(0));\n        rooms[_id].Rented = false;\n        emit CloseRoomRenter(_id);\n    }\n    \n    //  /    \n    //       ,    \n    function closeRoomOwnerForever (uint _id) public payable {\n        require(msg.sender == rooms[_id].Owner, 'Sender should be owner');\n        if (msg.value != 0 && rooms[_id].TimeDeal != 0){\n            require(rooms[_id].RentOwner.send(msg.value + deposit[_id]),  'Oops, something failed');           \n        }\n        deposit[_id] =0;\n        if (_id >= rooms.length) return;\n\n        for (uint i = _id; i<rooms.length-1; i++){\n            Room memory futureLast = rooms[i];\n            rooms[i] = rooms[i+1];\n            rooms[i].ID--;\n            rooms[i+1] = futureLast;\n            rooms[i+1].ID++;\n        }\n\n        rooms.pop();\n        emit CloseRoomOwnerForever(payable(msg.sender), _id);\n    }\n\n    //  /      \n    //       ,    \n    function closeRoomOwnerFromThisRenter (uint _id) public payable {\n        require(msg.sender == rooms[_id].Owner, 'Sender should be owner');\n        if (msg.value != 0 && rooms[_id].TimeDeal != 0){\n            require(rooms[_id].RentOwner.send(msg.value + deposit[_id]));           \n        }\n        deposit[_id] =0;\n        rooms[_id].RentOwner = payable(address(0));\n        rooms[_id].TimeDeal = 0;\n        rooms[_id].TimeRentEnded = 0;\n        rooms[_id].Rented = false;\n        emit CloseRoomOwnerFromThisRenter(payable(msg.sender), _id);\n    }\n\n    function getDeposit(uint _id) public view returns(uint){\n        return deposit[_id];\n    }\n    // \n    function changeKey(uint _id, uint _newKey) public {\n        require(msg.sender == rooms[_id].Owner, 'Sender should be owner');\n        keys[_id] = _newKey;\n        emit ChangeKey(_id);\n    }\n\n    // \n    function getKey(uint _id) public view returns(uint){\n        require(msg.sender == rooms[_id].Owner || msg.sender == rooms[_id].RentOwner, 'Sender should be owner or renter');\n        return keys[_id];\n    }\n}   ",
  "sourcePath": "/home/egor//WorkplaceSmartContracts/rent/contracts/Rent.sol",
  "compiler": {
    "name": "solc",
    "version": "0.8.6+commit.11564f7e.Emscripten.clang"
  },
  "schemaVersion": "3.4.1",
  "updatedAt": "2021-07-07T16:53:26.346Z",
  "networkType": "ethereum",
  "devdoc": {
    "kind": "dev",
    "methods": {},
    "version": 1
  },
  "userdoc": {
    "kind": "user",
    "methods": {
      "sellRoom(string,string,uint256,uint256)": {
        "notice": " /  "
      }
    },
    "version": 1
  }
}