{
  "contractName": "Rent",
  "abi": [
    {
      "inputs": [],
      "stateMutability": "payable",
      "type": "constructor",
      "payable": true
    },
    {
      "anonymous": false,
      "inputs": [
        {
          "indexed": false,
          "internalType": "uint256",
          "name": "_id",
          "type": "uint256"
        }
      ],
      "name": "ChangeKey",
      "type": "event"
    },
    {
      "anonymous": false,
      "inputs": [
        {
          "indexed": false,
          "internalType": "address payable",
          "name": "_owner",
          "type": "address"
        },
        {
          "indexed": false,
          "internalType": "uint256",
          "name": "_id",
          "type": "uint256"
        }
      ],
      "name": "CloseRoomOwnerForever",
      "type": "event"
    },
    {
      "anonymous": false,
      "inputs": [
        {
          "indexed": false,
          "internalType": "address payable",
          "name": "_owner",
          "type": "address"
        },
        {
          "indexed": false,
          "internalType": "uint256",
          "name": "_id",
          "type": "uint256"
        }
      ],
      "name": "CloseRoomOwnerFromThisRenter",
      "type": "event"
    },
    {
      "anonymous": false,
      "inputs": [
        {
          "indexed": false,
          "internalType": "uint256",
          "name": "_id",
          "type": "uint256"
        }
      ],
      "name": "CloseRoomRenter",
      "type": "event"
    },
    {
      "anonymous": false,
      "inputs": [
        {
          "indexed": false,
          "internalType": "address payable",
          "name": "_owner",
          "type": "address"
        },
        {
          "indexed": false,
          "internalType": "address payable",
          "name": "_rentOwner",
          "type": "address"
        },
        {
          "indexed": false,
          "internalType": "uint256",
          "name": "_id",
          "type": "uint256"
        },
        {
          "indexed": false,
          "internalType": "uint256",
          "name": "_timeDeal",
          "type": "uint256"
        },
        {
          "indexed": false,
          "internalType": "uint256",
          "name": "_timeRentEnded",
          "type": "uint256"
        },
        {
          "indexed": false,
          "internalType": "uint256",
          "name": "_price",
          "type": "uint256"
        }
      ],
      "name": "RentRoom",
      "type": "event"
    },
    {
      "anonymous": false,
      "inputs": [
        {
          "indexed": false,
          "internalType": "address payable",
          "name": "_owner",
          "type": "address"
        },
        {
          "indexed": false,
          "internalType": "uint256",
          "name": "_price",
          "type": "uint256"
        }
      ],
      "name": "SellRoom",
      "type": "event"
    },
    {
      "stateMutability": "payable",
      "type": "fallback",
      "payable": true
    },
    {
      "stateMutability": "payable",
      "type": "receive",
      "payable": true
    },
    {
      "inputs": [],
      "name": "getBalance",
      "outputs": [
        {
          "internalType": "uint256",
          "name": "",
          "type": "uint256"
        }
      ],
      "stateMutability": "view",
      "type": "function",
      "constant": true
    },
    {
      "inputs": [
        {
          "internalType": "address",
          "name": "_addr",
          "type": "address"
        }
      ],
      "name": "getAnotherBalance",
      "outputs": [
        {
          "internalType": "uint256",
          "name": "",
          "type": "uint256"
        }
      ],
      "stateMutability": "view",
      "type": "function",
      "constant": true
    },
    {
      "inputs": [
        {
          "internalType": "string",
          "name": "_name",
          "type": "string"
        },
        {
          "internalType": "string",
          "name": "_description",
          "type": "string"
        },
        {
          "internalType": "uint256",
          "name": "_key",
          "type": "uint256"
        },
        {
          "internalType": "uint256",
          "name": "_price",
          "type": "uint256"
        }
      ],
      "name": "sellRoom",
      "outputs": [],
      "stateMutability": "payable",
      "type": "function",
      "payable": true
    },
    {
      "inputs": [],
      "name": "getAllRooms",
      "outputs": [
        {
          "components": [
            {
              "internalType": "uint256",
              "name": "ID",
              "type": "uint256"
            },
            {
              "internalType": "address payable",
              "name": "Owner",
              "type": "address"
            },
            {
              "internalType": "address payable",
              "name": "RentOwner",
              "type": "address"
            },
            {
              "internalType": "uint256",
              "name": "TimeDeal",
              "type": "uint256"
            },
            {
              "internalType": "uint256",
              "name": "TimeRentEnded",
              "type": "uint256"
            },
            {
              "internalType": "string",
              "name": "Name",
              "type": "string"
            },
            {
              "internalType": "string",
              "name": "Description",
              "type": "string"
            },
            {
              "internalType": "uint256",
              "name": "Price",
              "type": "uint256"
            },
            {
              "internalType": "bool",
              "name": "Rented",
              "type": "bool"
            }
          ],
          "internalType": "struct Rent.Room[]",
          "name": "_rooms",
          "type": "tuple[]"
        }
      ],
      "stateMutability": "view",
      "type": "function",
      "constant": true
    },
    {
      "inputs": [
        {
          "internalType": "uint256",
          "name": "_id",
          "type": "uint256"
        }
      ],
      "name": "rentRoom",
      "outputs": [],
      "stateMutability": "payable",
      "type": "function",
      "payable": true
    },
    {
      "inputs": [
        {
          "internalType": "uint256",
          "name": "_id",
          "type": "uint256"
        }
      ],
      "name": "closeRoomRenter",
      "outputs": [],
      "stateMutability": "payable",
      "type": "function",
      "payable": true
    },
    {
      "inputs": [
        {
          "internalType": "uint256",
          "name": "_id",
          "type": "uint256"
        }
      ],
      "name": "closeRoomOwnerForever",
      "outputs": [],
      "stateMutability": "payable",
      "type": "function",
      "payable": true
    },
    {
      "inputs": [
        {
          "internalType": "uint256",
          "name": "_id",
          "type": "uint256"
        }
      ],
      "name": "closeRoomOwnerFromThisRenter",
      "outputs": [],
      "stateMutability": "payable",
      "type": "function",
      "payable": true
    },
    {
      "inputs": [
        {
          "internalType": "uint256",
          "name": "_id",
          "type": "uint256"
        }
      ],
      "name": "getDeposit",
      "outputs": [
        {
          "internalType": "uint256",
          "name": "",
          "type": "uint256"
        }
      ],
      "stateMutability": "view",
      "type": "function",
      "constant": true
    },
    {
      "inputs": [
        {
          "internalType": "uint256",
          "name": "_id",
          "type": "uint256"
        },
        {
          "internalType": "uint256",
          "name": "_newKey",
          "type": "uint256"
        }
      ],
      "name": "changeKey",
      "outputs": [],
      "stateMutability": "nonpayable",
      "type": "function"
    },
    {
      "inputs": [
        {
          "internalType": "uint256",
          "name": "_id",
          "type": "uint256"
        }
      ],
      "name": "getKey",
      "outputs": [
        {
          "internalType": "uint256",
          "name": "",
          "type": "uint256"
        }
      ],
      "stateMutability": "view",
      "type": "function",
      "constant": true
    }
  ],
  "bytecode": "0x6080604052612910806100136000396000f3fe6080604052600436106100a05760003560e01c8063a9de4bc711610064578063a9de4bc714610172578063bb5b27e11461018e578063cf53be75146101cb578063f5494b51146101e7578063f794cf2d14610203578063fa160ce91461022e576100a7565b806312065fe0146100a957806376479255146100d457806384a3fd6f146100f05780639ddde81c1461010c5780639f9fb96814610135576100a7565b366100a757005b005b3480156100b557600080fd5b506100be61026b565b6040516100cb919061233a565b60405180910390f35b6100ee60048036038101906100e99190611e30565b610273565b005b61010a60048036038101906101059190611e30565b610552565b005b34801561011857600080fd5b50610133600480360381019061012e9190611e5d565b610bc9565b005b34801561014157600080fd5b5061015c60048036038101906101579190611e30565b610cce565b604051610169919061233a565b60405180910390f35b61018c60048036038101906101879190611d91565b610ceb565b005b34801561019a57600080fd5b506101b560048036038101906101b09190611e30565b610f4c565b6040516101c2919061233a565b60405180910390f35b6101e560048036038101906101e09190611e30565b611096565b005b61020160048036038101906101fc9190611e30565b61138f565b005b34801561020f57600080fd5b506102186118c6565b6040516102259190612218565b60405180910390f35b34801561023a57600080fd5b5061025560048036038101906102509190611d64565b611b39565b604051610262919061233a565b60405180910390f35b600047905090565b60028181548110610287576102866126e1565b5b906000526020600020906009020160010160009054906101000a900473ffffffffffffffffffffffffffffffffffffffff1673ffffffffffffffffffffffffffffffffffffffff163373ffffffffffffffffffffffffffffffffffffffff1614610326576040517f08c379a000000000000000000000000000000000000000000000000000000000815260040161031d9061229a565b60405180910390fd5b6000341415801561035d5750600060028281548110610348576103476126e1565b5b90600052602060002090600902016003015414155b156104045760028181548110610376576103756126e1565b5b906000526020600020906009020160020160009054906101000a900473ffffffffffffffffffffffffffffffffffffffff1673ffffffffffffffffffffffffffffffffffffffff166108fc6001600084815260200190815260200160002054346103e09190612411565b9081150290604051600060405180830381858888f1935050505061040357600080fd5b5b60006001600083815260200190815260200160002081905550600060028281548110610433576104326126e1565b5b906000526020600020906009020160020160006101000a81548173ffffffffffffffffffffffffffffffffffffffff021916908373ffffffffffffffffffffffffffffffffffffffff160217905550600060028281548110610498576104976126e1565b5b9060005260206000209060090201600301819055506000600282815481106104c3576104c26126e1565b5b9060005260206000209060090201600401819055506000600282815481106104ee576104ed6126e1565b5b906000526020600020906009020160080160006101000a81548160ff0219169083151502179055507f907825b73e7dab4fb174ffd002a1becd876d6d79690d88fdc5d5eca715f32d4a33826040516105479291906121ef565b60405180910390a150565b60028181548110610566576105656126e1565b5b906000526020600020906009020160010160009054906101000a900473ffffffffffffffffffffffffffffffffffffffff1673ffffffffffffffffffffffffffffffffffffffff163373ffffffffffffffffffffffffffffffffffffffff1614610605576040517f08c379a00000000000000000000000000000000000000000000000000000000081526004016105fc9061229a565b60405180910390fd5b6000341415801561063c5750600060028281548110610627576106266126e1565b5b90600052602060002090600902016003015414155b156107195760028181548110610655576106546126e1565b5b906000526020600020906009020160020160009054906101000a900473ffffffffffffffffffffffffffffffffffffffff1673ffffffffffffffffffffffffffffffffffffffff166108fc6001600084815260200190815260200160002054346106bf9190612411565b9081150290604051600060405180830381858888f19350505050610718576040517f08c379a000000000000000000000000000000000000000000000000000000000815260040161070f906122fa565b60405180910390fd5b5b60006001600083815260200190815260200160002081905550600280549050811061074357610bc6565b600060028281548110610759576107586126e1565b5b906000526020600020906009020190506002600160028054905061077d91906124f2565b8154811061078e5761078d6126e1565b5b9060005260206000209060090201600283815481106107b0576107af6126e1565b5b9060005260206000209060090201600082015481600001556001820160009054906101000a900473ffffffffffffffffffffffffffffffffffffffff168160010160006101000a81548173ffffffffffffffffffffffffffffffffffffffff021916908373ffffffffffffffffffffffffffffffffffffffff1602179055506002820160009054906101000a900473ffffffffffffffffffffffffffffffffffffffff168160020160006101000a81548173ffffffffffffffffffffffffffffffffffffffff021916908373ffffffffffffffffffffffffffffffffffffffff160217905550600382015481600301556004820154816004015560058201816005019080546108be906125c2565b6108c9929190611b5a565b5060068201816006019080546108de906125c2565b6108e9929190611b5a565b50600782015481600701556008820160009054906101000a900460ff168160080160006101000a81548160ff021916908315150217905550905050806002600160028054905061093991906124f2565b8154811061094a576109496126e1565b5b9060005260206000209060090201600082015481600001556001820160009054906101000a900473ffffffffffffffffffffffffffffffffffffffff168160010160006101000a81548173ffffffffffffffffffffffffffffffffffffffff021916908373ffffffffffffffffffffffffffffffffffffffff1602179055506002820160009054906101000a900473ffffffffffffffffffffffffffffffffffffffff168160020160006101000a81548173ffffffffffffffffffffffffffffffffffffffff021916908373ffffffffffffffffffffffffffffffffffffffff16021790555060038201548160030155600482015481600401556005820181600501908054610a58906125c2565b610a63929190611b5a565b506006820181600601908054610a78906125c2565b610a83929190611b5a565b50600782015481600701556008820160009054906101000a900460ff168160080160006101000a81548160ff0219169083151502179055509050506002805480610ad057610acf6126b2565b5b60019003818190600052602060002090600902016000808201600090556001820160006101000a81549073ffffffffffffffffffffffffffffffffffffffff02191690556002820160006101000a81549073ffffffffffffffffffffffffffffffffffffffff021916905560038201600090556004820160009055600582016000610b5b9190611be7565b600682016000610b6b9190611be7565b60078201600090556008820160006101000a81549060ff0219169055505090557f582db14e0ca83e5a4fff9f1c06c21038e3d9fed9de9bc355668e1ac999f4427b3383604051610bbc9291906121ef565b60405180910390a1505b50565b60028281548110610bdd57610bdc6126e1565b5b906000526020600020906009020160010160009054906101000a900473ffffffffffffffffffffffffffffffffffffffff1673ffffffffffffffffffffffffffffffffffffffff163373ffffffffffffffffffffffffffffffffffffffff1614610c7c576040517f08c379a0000000000000000000000000000000000000000000000000000000008152600401610c739061229a565b60405180910390fd5b80600080848152602001908152602001600020819055507faba8af5d5b4392842577d3ed2da50560ff0c1c7faf476af69e05b783360d4e7a82604051610cc2919061233a565b60405180910390a15050565b600060016000838152602001908152602001600020549050919050565b60008114158015610cfd575060008214155b610d3c576040517f08c379a0000000000000000000000000000000000000000000000000000000008152600401610d339061231a565b60405180910390fd5b81600080600280549050815260200190815260200160002081905550600260405180610120016040528060028054905081526020013373ffffffffffffffffffffffffffffffffffffffff168152602001600073ffffffffffffffffffffffffffffffffffffffff16815260200160008152602001600081526020018681526020018581526020018381526020016000151581525090806001815401808255809150506001900390600052602060002090600902016000909190919091506000820151816000015560208201518160010160006101000a81548173ffffffffffffffffffffffffffffffffffffffff021916908373ffffffffffffffffffffffffffffffffffffffff16021790555060408201518160020160006101000a81548173ffffffffffffffffffffffffffffffffffffffff021916908373ffffffffffffffffffffffffffffffffffffffff160217905550606082015181600301556080820151816004015560a0820151816005019080519060200190610ec2929190611c27565b5060c0820151816006019080519060200190610edf929190611c27565b5060e082015181600701556101008201518160080160006101000a81548160ff02191690831515021790555050507fdbd9f31c8b270d29f0c9026d6a8a21187b75675b96fa4a674de1e9907b2565ff3382604051610f3e9291906121ef565b60405180910390a150505050565b600060028281548110610f6257610f616126e1565b5b906000526020600020906009020160010160009054906101000a900473ffffffffffffffffffffffffffffffffffffffff1673ffffffffffffffffffffffffffffffffffffffff163373ffffffffffffffffffffffffffffffffffffffff16148061103d575060028281548110610fdc57610fdb6126e1565b5b906000526020600020906009020160020160009054906101000a900473ffffffffffffffffffffffffffffffffffffffff1673ffffffffffffffffffffffffffffffffffffffff163373ffffffffffffffffffffffffffffffffffffffff16145b61107c576040517f08c379a00000000000000000000000000000000000000000000000000000000081526004016110739061225a565b60405180910390fd5b600080838152602001908152602001600020549050919050565b600281815481106110aa576110a96126e1565b5b906000526020600020906009020160020160009054906101000a900473ffffffffffffffffffffffffffffffffffffffff1673ffffffffffffffffffffffffffffffffffffffff163373ffffffffffffffffffffffffffffffffffffffff1614611149576040517f08c379a0000000000000000000000000000000000000000000000000000000008152600401611140906122da565b60405180910390fd5b60006002828154811061115f5761115e6126e1565b5b90600052602060002090600902016003015414611243576002818154811061118a576111896126e1565b5b906000526020600020906009020160020160009054906101000a900473ffffffffffffffffffffffffffffffffffffffff1673ffffffffffffffffffffffffffffffffffffffff166108fc60016000848152602001908152602001600020549081150290604051600060405180830381858888f19350505050611242576040517f08c379a0000000000000000000000000000000000000000000000000000000008152600401611239906122fa565b60405180910390fd5b5b60006001600083815260200190815260200160002081905550600060028281548110611272576112716126e1565b5b90600052602060002090600902016003018190555060006002828154811061129d5761129c6126e1565b5b9060005260206000209060090201600401819055506000600282815481106112c8576112c76126e1565b5b906000526020600020906009020160020160006101000a81548173ffffffffffffffffffffffffffffffffffffffff021916908373ffffffffffffffffffffffffffffffffffffffff16021790555060006002828154811061132d5761132c6126e1565b5b906000526020600020906009020160080160006101000a81548160ff0219169083151502179055507f63035a39d22541311d0fe6fa16d0115f4b93d5b4ee333b582e41d6ca51308ba681604051611384919061233a565b60405180910390a150565b600281815481106113a3576113a26126e1565b5b906000526020600020906009020160010160009054906101000a900473ffffffffffffffffffffffffffffffffffffffff1673ffffffffffffffffffffffffffffffffffffffff163373ffffffffffffffffffffffffffffffffffffffff161415611443576040517f08c379a000000000000000000000000000000000000000000000000000000000815260040161143a9061227a565b60405180910390fd5b60028181548110611457576114566126e1565b5b906000526020600020906009020160080160009054906101000a900460ff16156114b6576040517f08c379a00000000000000000000000000000000000000000000000000000000081526004016114ad906122ba565b60405180910390fd5b34600282815481106114cb576114ca6126e1565b5b906000526020600020906009020160070154111561151e576040517f08c379a00000000000000000000000000000000000000000000000000000000081526004016115159061223a565b60405180910390fd5b600060028281548110611534576115336126e1565b5b906000526020600020906009020160070154346115519190612467565b905060028281548110611567576115666126e1565b5b9060005260206000209060090201600701546001600084815260200190815260200160002081905550600282815481106115a4576115a36126e1565b5b906000526020600020906009020160010160009054906101000a900473ffffffffffffffffffffffffffffffffffffffff1673ffffffffffffffffffffffffffffffffffffffff166108fc60028481548110611603576116026126e1565b5b9060005260206000209060090201600701543461162091906124f2565b9081150290604051600060405180830381858888f19350505050611679576040517f08c379a0000000000000000000000000000000000000000000000000000000008152600401611670906122fa565b60405180910390fd5b426002838154811061168e5761168d6126e1565b5b9060005260206000209060090201600301819055508062278d006116b29190612498565b426116bd9190612411565b600283815481106116d1576116d06126e1565b5b90600052602060002090600902016004018190555033600283815481106116fb576116fa6126e1565b5b906000526020600020906009020160020160006101000a81548173ffffffffffffffffffffffffffffffffffffffff021916908373ffffffffffffffffffffffffffffffffffffffff1602179055506001600283815481106117605761175f6126e1565b5b906000526020600020906009020160080160006101000a81548160ff0219169083151502179055507f1b0e113c662bd1138cab9b433365de8bb2b82f5a331b087e287ec25abeb0464f600283815481106117bd576117bc6126e1565b5b906000526020600020906009020160010160009054906101000a900473ffffffffffffffffffffffffffffffffffffffff1660028481548110611803576118026126e1565b5b906000526020600020906009020160020160009054906101000a900473ffffffffffffffffffffffffffffffffffffffff16846002868154811061184a576118496126e1565b5b906000526020600020906009020160030154600287815481106118705761186f6126e1565b5b90600052602060002090600902016004015460028881548110611896576118956126e1565b5b9060005260206000209060090201600701546040516118ba9695949392919061218e565b60405180910390a15050565b60606002805480602002602001604051908101604052809291908181526020016000905b82821015611b30578382906000526020600020906009020160405180610120016040529081600082015481526020016001820160009054906101000a900473ffffffffffffffffffffffffffffffffffffffff1673ffffffffffffffffffffffffffffffffffffffff1673ffffffffffffffffffffffffffffffffffffffff1681526020016002820160009054906101000a900473ffffffffffffffffffffffffffffffffffffffff1673ffffffffffffffffffffffffffffffffffffffff1673ffffffffffffffffffffffffffffffffffffffff16815260200160038201548152602001600482015481526020016005820180546119e8906125c2565b80601f0160208091040260200160405190810160405280929190818152602001828054611a14906125c2565b8015611a615780601f10611a3657610100808354040283529160200191611a61565b820191906000526020600020905b815481529060010190602001808311611a4457829003601f168201915b50505050508152602001600682018054611a7a906125c2565b80601f0160208091040260200160405190810160405280929190818152602001828054611aa6906125c2565b8015611af35780601f10611ac857610100808354040283529160200191611af3565b820191906000526020600020905b815481529060010190602001808311611ad657829003601f168201915b50505050508152602001600782015481526020016008820160009054906101000a900460ff161515151581525050815260200190600101906118ea565b50505050905090565b60008173ffffffffffffffffffffffffffffffffffffffff16319050919050565b828054611b66906125c2565b90600052602060002090601f016020900481019282611b885760008555611bd6565b82601f10611b995780548555611bd6565b82800160010185558215611bd657600052602060002091601f016020900482015b82811115611bd5578254825591600101919060010190611bba565b5b509050611be39190611cad565b5090565b508054611bf3906125c2565b6000825580601f10611c055750611c24565b601f016020900490600052602060002090810190611c239190611cad565b5b50565b828054611c33906125c2565b90600052602060002090601f016020900481019282611c555760008555611c9c565b82601f10611c6e57805160ff1916838001178555611c9c565b82800160010185558215611c9c579182015b82811115611c9b578251825591602001919060010190611c80565b5b509050611ca99190611cad565b5090565b5b80821115611cc6576000816000905550600101611cae565b5090565b6000611cdd611cd88461237a565b612355565b905082815260208101848484011115611cf957611cf8612744565b5b611d04848285612580565b509392505050565b600081359050611d1b816128ac565b92915050565b600082601f830112611d3657611d3561273f565b5b8135611d46848260208601611cca565b91505092915050565b600081359050611d5e816128c3565b92915050565b600060208284031215611d7a57611d7961274e565b5b6000611d8884828501611d0c565b91505092915050565b60008060008060808587031215611dab57611daa61274e565b5b600085013567ffffffffffffffff811115611dc957611dc8612749565b5b611dd587828801611d21565b945050602085013567ffffffffffffffff811115611df657611df5612749565b5b611e0287828801611d21565b9350506040611e1387828801611d4f565b9250506060611e2487828801611d4f565b91505092959194509250565b600060208284031215611e4657611e4561274e565b5b6000611e5484828501611d4f565b91505092915050565b60008060408385031215611e7457611e7361274e565b5b6000611e8285828601611d4f565b9250506020611e9385828601611d4f565b9150509250929050565b6000611ea983836120a4565b905092915050565b611eba81612538565b82525050565b611ec981612538565b82525050565b6000611eda826123bb565b611ee481856123de565b935083602082028501611ef6856123ab565b8060005b85811015611f325784840389528151611f138582611e9d565b9450611f1e836123d1565b925060208a01995050600181019050611efa565b50829750879550505050505092915050565b611f4d8161254a565b82525050565b6000611f5e826123c6565b611f6881856123ef565b9350611f7881856020860161258f565b611f8181612753565b840191505092915050565b6000611f99601083612400565b9150611fa482612764565b602082019050919050565b6000611fbc602083612400565b9150611fc78261278d565b602082019050919050565b6000611fdf601a83612400565b9150611fea826127b6565b602082019050919050565b6000612002601683612400565b915061200d826127df565b602082019050919050565b6000612025600c83612400565b915061203082612808565b602082019050919050565b6000612048601783612400565b915061205382612831565b602082019050919050565b600061206b601683612400565b91506120768261285a565b602082019050919050565b600061208e601e83612400565b915061209982612883565b602082019050919050565b6000610120830160008301516120bd6000860182612170565b5060208301516120d06020860182611eb1565b5060408301516120e36040860182611eb1565b5060608301516120f66060860182612170565b5060808301516121096080860182612170565b5060a083015184820360a08601526121218282611f53565b91505060c083015184820360c086015261213b8282611f53565b91505060e083015161215060e0860182612170565b50610100830151612165610100860182611f44565b508091505092915050565b61217981612576565b82525050565b61218881612576565b82525050565b600060c0820190506121a36000830189611ec0565b6121b06020830188611ec0565b6121bd604083018761217f565b6121ca606083018661217f565b6121d7608083018561217f565b6121e460a083018461217f565b979650505050505050565b60006040820190506122046000830185611ec0565b612211602083018461217f565b9392505050565b600060208201905081810360008301526122328184611ecf565b905092915050565b6000602082019050818103600083015261225381611f8c565b9050919050565b6000602082019050818103600083015261227381611faf565b9050919050565b6000602082019050818103600083015261229381611fd2565b9050919050565b600060208201905081810360008301526122b381611ff5565b9050919050565b600060208201905081810360008301526122d381612018565b9050919050565b600060208201905081810360008301526122f38161203b565b9050919050565b600060208201905081810360008301526123138161205e565b9050919050565b6000602082019050818103600083015261233381612081565b9050919050565b600060208201905061234f600083018461217f565b92915050565b600061235f612370565b905061236b82826125f4565b919050565b6000604051905090565b600067ffffffffffffffff82111561239557612394612710565b5b61239e82612753565b9050602081019050919050565b6000819050602082019050919050565b600081519050919050565b600081519050919050565b6000602082019050919050565b600082825260208201905092915050565b600082825260208201905092915050565b600082825260208201905092915050565b600061241c82612576565b915061242783612576565b9250827fffffffffffffffffffffffffffffffffffffffffffffffffffffffffffffffff0382111561245c5761245b612625565b5b828201905092915050565b600061247282612576565b915061247d83612576565b92508261248d5761248c612654565b5b828204905092915050565b60006124a382612576565b91506124ae83612576565b9250817fffffffffffffffffffffffffffffffffffffffffffffffffffffffffffffffff04831182151516156124e7576124e6612625565b5b828202905092915050565b60006124fd82612576565b915061250883612576565b92508282101561251b5761251a612625565b5b828203905092915050565b600061253182612556565b9050919050565b600061254382612556565b9050919050565b60008115159050919050565b600073ffffffffffffffffffffffffffffffffffffffff82169050919050565b6000819050919050565b82818337600083830152505050565b60005b838110156125ad578082015181840152602081019050612592565b838111156125bc576000848401525b50505050565b600060028204905060018216806125da57607f821691505b602082108114156125ee576125ed612683565b5b50919050565b6125fd82612753565b810181811067ffffffffffffffff8211171561261c5761261b612710565b5b80604052505050565b7f4e487b7100000000000000000000000000000000000000000000000000000000600052601160045260246000fd5b7f4e487b7100000000000000000000000000000000000000000000000000000000600052601260045260246000fd5b7f4e487b7100000000000000000000000000000000000000000000000000000000600052602260045260246000fd5b7f4e487b7100000000000000000000000000000000000000000000000000000000600052603160045260246000fd5b7f4e487b7100000000000000000000000000000000000000000000000000000000600052603260045260246000fd5b7f4e487b7100000000000000000000000000000000000000000000000000000000600052604160045260246000fd5b600080fd5b600080fd5b600080fd5b600080fd5b6000601f19601f8301169050919050565b7f4e6f7420656e6f756768206d6f6e657900000000000000000000000000000000600082015250565b7f53656e6465722073686f756c64206265206f776e6572206f722072656e746572600082015250565b7f53656e6465722073686f756c64206265206e6f74206f776e6572000000000000600082015250565b7f53656e6465722073686f756c64206265206f776e657200000000000000000000600082015250565b7f416c72656164792072656e740000000000000000000000000000000000000000600082015250565b7f53656e6465722073686f756c642062652072656e746572000000000000000000600082015250565b7f4f6f70732c20736f6d657468696e67206661696c656400000000000000000000600082015250565b7f4b657920616e642070726963652063616e277420626520657175616c20300000600082015250565b6128b581612526565b81146128c057600080fd5b50565b6128cc81612576565b81146128d757600080fd5b5056fea264697066735822122095975a193237c1b2b0b9cf21413c758362528cf0081f67f4217ab0a9bf858c0464736f6c63430008060033",
  "immutableReferences": {},
  "source": "pragma experimental ABIEncoderV2;\npragma solidity >=0.8.0 <0.9.0;\n\ncontract Rent {\n    mapping(uint => uint) keys;\n    mapping(uint => uint) deposit;\n    struct Room  {\n        uint ID;\n        address payable Owner;\n        address payable RentOwner;\n        uint TimeDeal;\n        uint TimeRentEnded;\n        string Name;\n        string Description;\n        uint Price;\n        bool Rented;\n    }\n    Room[] rooms;\n    \n    constructor() payable {}\n\n    fallback() external payable{}\n    receive() external payable{}\n\n    //    ,   \n    function getBalance() public view returns(uint){\n        return address(this).balance;\n    }\n\n    function getAnotherBalance(address _addr) public view returns(uint) {\n        return _addr.balance;\n    }\n\n    event SellRoom (address payable _owner, uint _price);\n    event RentRoom (address payable _owner, address payable _rentOwner, uint _id,uint _timeDeal, uint _timeRentEnded,uint _price);\n    event CloseRoomOwnerForever(address payable _owner, uint _id);\n    event CloseRoomRenter(uint _id);\n    event CloseRoomOwnerFromThisRenter(address payable _owner, uint _id);\n    event ChangeKey(uint _id);\n\n    /// /  \n    function sellRoom(string memory _name, string memory _description, uint _key, uint _price) public payable {\n        require(_price != 0 && _key != 0, \"Key and price can't be equal 0\");\n        keys[rooms.length] = _key;\n        rooms.push(Room(rooms.length, payable(msg.sender), payable(address(0)), 0, 0, _name, _description, _price, false));\n        emit SellRoom(payable(msg.sender), _price);\n    }\n\n    // /\n    function getAllRooms() public view returns(Room[] memory _rooms){\n        _rooms = rooms;\n    }\n\n    // /\n    function rentRoom (uint _id) public payable {\n        require(msg.sender != rooms[_id].Owner, 'Sender should be not owner');\n        require(!rooms[_id].Rented, 'Already rent');\n        require(rooms[_id].Price <= msg.value, 'Not enough money');\n        //   \n        uint monthRent = msg.value / rooms[_id].Price;\n        //     \n        deposit[_id] = rooms[_id].Price;\n        //  \n        require(rooms[_id].Owner.send(msg.value - rooms[_id].Price), 'Oops, something failed');\n        rooms[_id].TimeDeal = block.timestamp;\n        rooms[_id].TimeRentEnded = block.timestamp + (30 days * monthRent);\n        rooms[_id].RentOwner = payable(msg.sender);\n        rooms[_id].Rented = true;\n        emit RentRoom(rooms[_id].Owner, rooms[_id].RentOwner, _id ,rooms[_id].TimeDeal, rooms[_id].TimeRentEnded, rooms[_id].Price);\n    }\n    \n    // /       \n    function closeRoomRenter (uint _id) public payable {\n        require(msg.sender == rooms[_id].RentOwner, 'Sender should be renter');\n        if (rooms[_id].TimeDeal != 0){\n            require(rooms[_id].RentOwner.send(deposit[_id]), 'Oops, something failed');           \n        }\n        deposit[_id] = 0;\n        rooms[_id].TimeDeal = 0;\n        rooms[_id].TimeRentEnded = 0;\n        rooms[_id].RentOwner = payable(address(0));\n        rooms[_id].Rented = false;\n        emit CloseRoomRenter(_id);\n    }\n    \n    //  /    \n    //       ,    \n    function closeRoomOwnerForever (uint _id) public payable {\n        require(msg.sender == rooms[_id].Owner, 'Sender should be owner');\n        if (msg.value != 0 && rooms[_id].TimeDeal != 0){\n            require(rooms[_id].RentOwner.send(msg.value + deposit[_id]),  'Oops, something failed');           \n        }\n        deposit[_id] =0;\n        if (_id >= rooms.length) return;\n\n        Room storage futureLast = rooms[_id];\n        rooms[_id] = rooms[rooms.length-1];\n        rooms[rooms.length-1] = futureLast;\n        // for (uint i = _id; i<rooms.length-1; i++){\n        //     Room memory futureLast = rooms[i];\n        //     rooms[i] = rooms[i+1];\n        //     rooms[i].ID--;\n        //     rooms[i+1] = futureLast;\n        //     rooms[i+1].ID++;\n        // }\n\n        rooms.pop();\n        emit CloseRoomOwnerForever(payable(msg.sender), _id);\n    }\n\n    //  /      \n    //       ,    \n    function closeRoomOwnerFromThisRenter (uint _id) public payable {\n        require(msg.sender == rooms[_id].Owner, 'Sender should be owner');\n        if (msg.value != 0 && rooms[_id].TimeDeal != 0){\n            require(rooms[_id].RentOwner.send(msg.value + deposit[_id]));           \n        }\n        deposit[_id] =0;\n        rooms[_id].RentOwner = payable(address(0));\n        rooms[_id].TimeDeal = 0;\n        rooms[_id].TimeRentEnded = 0;\n        rooms[_id].Rented = false;\n        emit CloseRoomOwnerFromThisRenter(payable(msg.sender), _id);\n    }\n\n    function getDeposit(uint _id) public view returns(uint){\n        return deposit[_id];\n    }\n    // \n    function changeKey(uint _id, uint _newKey) public {\n        require(msg.sender == rooms[_id].Owner, 'Sender should be owner');\n        keys[_id] = _newKey;\n        emit ChangeKey(_id);\n    }\n\n    // \n    function getKey(uint _id) public view returns(uint){\n        require(msg.sender == rooms[_id].Owner || msg.sender == rooms[_id].RentOwner, 'Sender should be owner or renter');\n        return keys[_id];\n    }\n}   ",
  "sourcePath": "/home/egor//WorkplaceSmartContracts/rent/contracts/Rent.sol",
  "compiler": {
    "name": "solc",
    "version": "0.8.6+commit.11564f7e.Emscripten.clang"
  },
  "schemaVersion": "3.4.1",
  "updatedAt": "2021-07-07T14:25:09.113Z",
  "networkType": "ethereum",
  "devdoc": {
    "kind": "dev",
    "methods": {},
    "version": 1
  },
  "userdoc": {
    "kind": "user",
    "methods": {
      "sellRoom(string,string,uint256,uint256)": {
        "notice": " /  "
      }
    },
    "version": 1
  }
}